:020000040800F2
:10000000D02E00206102000841360008DB310008D4
:100010003F360008B904000833580008000000000B
:10002000000000000000000000000000C9010008FE
:1000300031060008000000000D020008493D0008DC
:100040007B0200087B0200087B0200087B0200089C
:100050003D060008573900087B0200087B020008B3
:100060007B0200087B0200087B0200087B0200087C
:100070007B0200087B0200087B0200087B0200086C
:100080007B0200087B0200087B0200088157000801
:100090009D5700080D0500087B0200087B02000840
:1000A0007B0200087B0200087B0200087B0200083C
:1000B000C53D0008D13D00087B0200087B02000816
:1000C0007B0200087B0200087B0200087B0200081C
:1000D0007B0200087B0200087B0200087B0200080C
:1000E000330600087B0200087B02000800F002F8DB
:1000F00000F05AF80AA090E8000C82448344AAF168
:100100000107DA4501D100F04FF8AFF2090EBAE865
:100110000F0013F0010F18BFFB1A43F0010318473B
:10012000008C0000208C00000A444FF0000C10F8F6
:10013000013B13F0070408BF10F8014B1D1108BF65
:1001400010F8015B641E05D010F8016B641E01F805
:10015000016BF9D113F0080F1EBF10F8014BAD1C55
:100160000C1B09D16D1E58BF01F801CBFAD505E073
:1001700014F8016B01F8016B6D1EF9D59142D6D3CD
:10018000704700000023002400250026103A28BFF5
:1001900078C1FBD8520728BF30C148BF0B607047F9
:1001A0001FB51FBD10B510BD00F02FF91146FFF7A8
:1001B000F7FF05F03DFE00F04DF903B4FFF7F2FF45
:1001C00003BC00F051F90000224B19680868B0E840
:1001D000F00F80F30988BFF36F8F4FF0000080F3BA
:1001E00011884EF00D0E70470000000006480068B0
:1001F000006880F3088862B661B6BFF34F8FBFF323
:100200006F8F00DF00BF00BF08ED00E0EFF3098053
:10021000BFF36F8F0F4B1A6820E9F00F106008B51D
:100220004FF0500080F31188BFF34F8FBFF36F8FF3
:1002300006F0E0FF4FF0000080F31188BDE80840B1
:1002400019680868B0E8F00F80F30988BFF36F8F72
:10025000704700BF48000020EFF3058070470000A2
:100260000948804709480047FEE7FEE7FEE7FEE74A
:10027000FEE7FEE7FEE7FEE7FEE7FEE70448054986
:10028000054A064B70470000C13D0008ED0000081C
:10029000D0280020D02E0020D02A0020D02A0020F4
:1002A000032A40F2308010F0030C00F0158011F8A2
:1002B000013BBCF1020F624498BF11F801CB00F87A
:1002C000013B38BF11F8013BA2F1040298BF00F8CE
:1002D00001CB38BF00F8013B11F0030300F025808B
:1002E000083AC0F0088051F8043B083A51F804CBB2
:1002F000A0E80810F5E7121D5CBF51F8043B40F878
:10030000043BAFF30080D20724BF11F8013B11F882
:1003100001CB48BF11F8012B24BF00F8013B00F8C6
:1003200001CB48BF00F8012B704710B5203AC0F050
:100330000B80B1E81850203AA0E81850B1E81850E6
:10034000A0E81850BFF4F5AF5FEA027C24BFB1E823
:100350001850A0E8185044BF18C918C0BDE8104094
:100360005FEA827C24BF51F8043B40F8043B08BF9D
:100370007047D20728BF31F8023B48BF11F8012B64
:1003800028BF20F8023B48BF00F8012B70474FF010
:10039000000200B5134694469646203922BFA0E8D5
:1003A0000C50A0E80C50B1F12001BFF4F7AF0907E1
:1003B00028BFA0E80C5048BF0CC05DF804EB8900D2
:1003C00028BF40F8042B08BF704748BF20F8022B15
:1003D00011F0804F18BF00F8012B7047704770472D
:1003E000704710B500F00CF8006810BD10B5044659
:1003F00000F006F8046010BD004870476C2800202B
:10040000004870476C28002070477546FFF7F4FFDE
:10041000AE4605006946534620F00700854618B0F1
:1004200020B5FFF72BFFBDE820404FF000064FF04E
:1004300000074FF000084FF0000B21F00701AC4619
:10044000ACE8C009ACE8C009ACE8C009ACE8C00938
:100450008D46704710B50446AFF300802046BDE8D6
:100460001040FFF7AABE000001491820ABBEFEE70E
:100470002600020030B50C4605000CD0022C0AD92B
:100480000548A11E0288284600F028F9291901F81C
:10049000020D000A487030BDB000002030B50C4697
:1004A000050008D0022C06D9FF22611E00F02CF9AD
:1004B000291901F8010C30BDFEE7000000B58BB032
:1004C0000020059001900090029003900490069007
:1004D0000120079008900E20099069460A4800F014
:1004E00097F908B100F0A9F80221074800F01AF9BD
:1004F00008B100F0A2F8044800F0CEFC002801D0BA
:1005000000F09BF80BB000BDE4040020014800F0AF
:1005100081BA0000E404002003F022F80D4D00240D
:1005200005EB840055F8241002690B480346C0E926
:100530000012082204F20121002000F04BF80120F3
:1005400005F0C6FC641C042CEADB012005F0C0FCAD
:10055000E5E700005C020020240000200020704736
:100560000020704710B500220449054803F056FEEC
:100570000449034803F04CFE002010BD781F002002
:10058000CC160020901B002010B50446096806F028
:1005900001FD2146034803F03BFE024803F01CFE28
:1005A000002010BDCC160020094A10B5D2F8B822A0
:1005B000D2F814220AB1012010BD0A4601460448AF
:1005C00003F02CFEBDE81040014803F085BE00009A
:1005D000CC16002070B5002488B01E46254650B1C8
:1005E0000420CDE9011000BFCDE903528DF814506D
:1005F0004FF6FE7506E002950091F5E7641CA4B283
:10060000AC420FD8094800F0EFF90028F6D00120DD
:1006100000F076FC06AB32466946044800F094F8D8
:10062000002800D0012008B070BD0000E4040020C4
:1006300070474FF4006000F00BBD704700F074BCD1
:10064000064A0021D16106490A6942F002020A61A4
:100650004861086940F04000086170479806002032
:1006600000200240044B0022DA61044A136943F07F
:1006700001031361018070479806002000200240AA
:1006800014480022C168CB06134904D5CA6942F058
:100690000202CA611022C3685B0705D5CB6943F02B
:1006A0000103CB6142F00402C369DB0707D0CB69C9
:1006B00043F00403CB61C16921F00101C161A2F5DE
:1006C0008071013901D0C2607047C16921F0010118
:1006D000C1617047002002409806002010B558B153
:1006E000084C491E0BD310F8013B5340DBB234F8E1
:1006F000133083EA1222F4E74FF6FF7010BD104664
:1007000010BD0000D889000810B5054C04E000BFFA
:1007100010F8013B5340E25C491EF9D2104610BD6F
:10072000D888000890F82020012A07D0022A05D096
:10073000416A41F4802141620120704700684269AA
:100740000A43426100207047F0B590F820500468D9
:10075000A468012D05D0022D03D0416A41F4802107
:1007600053E014F0406F01D1E5004BD5C4F30164B0
:10077000022C03D9416A41F4000146E00125A5405D
:100780001D608D684FF4C0739DB1CE6835434E68CF
:1007900045EAC605066803EB0417F5514FF4C27528
:1007A000076805EB04150E697E51097D012905D006
:1007B00009E00E88CD6845EA4655EBE701684E59D9
:1007C00046F480764E511179D2F805504FF4C67632
:1007D00041EA0525016806EB04168D511178D2F81F
:1007E00001204FF4C47541EA0221026805EB0415AB
:1007F0005151006803EB0411425842F0010242508B
:100800000020F0BD416A41F4001141620120F0BDB9
:1008100010B590F820300268012B07D0022B05D0CC
:10082000416A41F480214162012010BDD2F80002EA
:1008300040F00100C2F80002087D00F01F03012013
:100840009840D2F81C328343C2F81C32CB69B3B94A
:10085000D2F80C328343C2F80C328C894B6864F3B3
:100860001F434C6902EBC404C4F840320C890B6886
:1008700064F31F434C6902EBC404C4F84432CB69EF
:10088000012B16D1D2F80C320343C2F80C320C887B
:100890004B6864F31F434C6902EBC404C4F8403254
:1008A0000C89CB6864F31F434C6902EBC404C4F8A1
:1008B00044328B69002BD2F804320FD053EA000384
:1008C000C2F804320B69002BD2F8143208D003436B
:1008D000C2F81432096A012904D008E08343EFE723
:1008E0008343F5E7D2F81C120143C2F81C12D2F878
:1008F000000220F00100C2F80002002010BD704785
:1009000030B590F82040012C05D0022C03D0416A6C
:1009100041F480215DE00468002955D02469A407D2
:1009200054D04FF4D874056804EB01142D5915F018
:100930000405956005682D594ED0ED085560056891
:100940002C5904F00204D4604FF4DA74056804EB07
:1009500001142D5905F00F05156105682D59C5F3D2
:100960000725956105682C59240C54614FF4DC72FD
:10097000046802EB0112A4581C700468A458240AED
:100980005C700468A458240C9C700468A258120E71
:10099000DA704FF4DE72046802EB0112A4581C7185
:1009A0000468A458240A5C710468A458240C9C713F
:1009B0000468A258120EDA71006881B1016941F031
:1009C00020010161002030BDE468A8E7416A41F4DC
:1009D00000114162012030BD6D0D1560AFE7C168A7
:1009E00041F02001C160EDE70246002092F820109E
:1009F000012901D002290CD111688A68520100D561
:100A000001208A68120100D5401C8968C90000D500
:100A1000401C70472DE9F05F0546006800244669D8
:100A2000D0F804908768D0F80CB0D0F810A0D0F8B7
:100A30001880F10748D0F90714D001218160B80768
:100A400003D5284600F055FA0CE0780702D54FF49C
:100A5000006407E0380702D54FF4805402E02846CE
:100A600000F046FAF80516D529684FF480708860C2
:100A7000B80503D5284600F03EFA0CE0780502D50B
:100A800044F4005407E0380502D544F4804402E001
:100A9000284600F02FFAF80316D529684FF4803065
:100AA0008860B80303D5284600F027FA0CE07803E5
:100AB00002D544F4004407E0380302D544F48034FE
:100AC00002E0284600F018FA300707D55FEACB604D
:100AD00004D52968102044F40074C86070074FF0F2
:100AE000080707D55FEA0B7004D52868C760284659
:100AF00000F076F9B00706D52868C068800702D0F4
:100B0000284600F06FF9700607D55FEACA6004D581
:100B10002968102044F480640861B00607D55FEAB4
:100B20000A7004D528680761284600F0B1F9F0067C
:100B300006D528680069800702D0284600F0A9F988
:100B4000B00308D55FEAC96005D529681020486060
:100B5000284600F09FF9F00307D55FEA097004D535
:100B600028684760284600F0C9F9300446D55FEA96
:100B7000497040D5F00504D55FEAC87001D044F053
:100B80000104B00504D55FEA887001D544F0020481
:100B9000700504D55FEA487001D544F004043005BF
:100BA00029D518F0700F26D008F07000402815D015
:100BB00006DC102809D020280AD0302816D10AE0F7
:100BC00050280ED0602811D10EE044F008040DE04A
:100BD00044F010040AE044F0200407E044F040042C
:100BE00004E044F0800401E044F4807428688169E2
:100BF00021F070018161296804204860002C05D033
:100C0000686A204368622846FFF779FEBDE8F09FD6
:100C100070B5040003D094F8200010B104E0012066
:100C200070BD204600F082F82068016841F00101A3
:100C3000016000F00FFB0546052604E000F00AFB0A
:100C4000401B0A2811D820684068C007F6D02068E9
:100C5000016821F00201016000F0FCFA05460BE09A
:100C600000F0F8FA401B0A2806D9606A40F4003008
:100C7000606284F82060D2E7206840688007EFD483
:100C8000207E0128206801683DD021F080010160AC
:100C9000607E01282068016838D021F040010160A1
:100CA000A07E01282068016833D021F02001016076
:100CB000E07E0128206801682ED041F0100101601B
:100CC000207F01282068016829D021F008010160F7
:100CD000607F01282068016824D021F004010160B0
:100CE000D4E902010843D4E90412114308436168BE
:100CF000491E08432168C86100206062012084F811
:100D00002000002070BD41F08001C0E741F04001AB
:100D1000C5E741F02001CAE721F01001CFE741F01B
:100D20000801D4E741F00401D9E7000010B586B00E
:100D300000210091019102910391006824498842A9
:100D400043D12448C16941F00071C161C16901F01A
:100D500000710491816941F00801816180691E4C34
:100D600000F0080004904FF480700090694620461F
:100D700000F07AF9601500900220019003200390A2
:100D80006946204600F070F91448416821F4C041DA
:100D900041F0E06141F480414160002205211320CF
:100DA00000F0DAFA132000F0C9FA00220121142021
:100DB00000F0D2FA142000F0C1FA0022052115201B
:100DC00000F0CAFA152000F0B9FA06B010BD000014
:100DD0000064004000100240000C0140000001408F
:100DE0007047000030B587B0264B6A460021FFF7F8
:100DF00087FD00282AD1029808B1019C00E0009CE0
:100E0000204D21486D1E4FF400512A78A2B30122D3
:100E100000F01AFA002028701A49A4F580700138F1
:100E200016D0B4F5817F11D1184A00200B5C135401
:100E3000401CC0B20428F9D3144A121D00200B181C
:100E40001B791354401CC0B20428F8D307B030BD3E
:100E50000E4A083A00200B5C1354401CC0B2042810
:100E6000F9D30A4A121F00200B181B791354401C97
:100E7000C0B20428F8D3E9E7FFE7002200F0E4F964
:100E80000120C8E72D00002000100140880200204A
:100E9000704770477047000070B5044690F8200016
:100EA000012804D0606A40F40020606218E002204B
:100EB00084F820002068016821F00101016000F041
:100EC000C9F905460EE000BF00F0C4F9401B0A282E
:100ED00008D9606A40F400306062052084F8200080
:100EE000012070BD20684068C007EDD1606270BD10
:100EF00070477047704770477047704770470000F1
:100F000070B5044600F0A6F90546601C02D00448FE
:100F10000078044400F09EF9401BA042FAD370BD53
:100F200038000020704700002DE9F0413E4DE86890
:100F30003E4CC0064FF0FF374FF0000602D4E86881
:100F4000400708D5D4F80880A760FFF799FB404612
:100F500000F06EF82670E868800653D52020E8601F
:100F60002078F8B1207801281DD02078022833D0CD
:100F70006068401E60606068B0B3A068801CA060BC
:100F8000A06821696269090C41EA0241120C2161E1
:100F90006261296921F0010129612169626989B2CF
:100FA000FFF760FB2EE06068401E6060606868B11B
:100FB000A068FFF7B7FFA06800F58060A06029690E
:100FC00021F002012961FFF73BFB1BE03846A760D7
:100FD0002670FFF7A7FF15E0286920F004002861BC
:100FE0000020FFF79FFF0CE0FFE72078032817D0D1
:100FF00020780428A06815D0B0F10600FFF792FF12
:10100000A76026702078002808D1286920F0070002
:101010002861286920F4A05028612676BDE8F08177
:10102000A068EBE7801EE9E7002002409806002058
:10103000704700004FF40061884204D1024A00204A
:101040001070024801607047020000201404014043
:10105000044910B50A68024202D00860FFF7EAFFAF
:1010600010BD0000140401402DE9F84FDFF8B891DD
:10107000002409F1040A0AF1040B23460F270BF19F
:10108000040EC9E00125A5402A40AA427DD1674E41
:10109000D1F804C0ACEB0608B44532D014DCBCF186
:1010A000030F3AD009DCBCF1000F2AD0BCF1010FCC
:1010B0001CD0BCF1020F31D11DE0BCF1110F17D0D3
:1010C000BCF1120F2AD119E0B8F5881F19D006DC3F
:1010D000B8F5803F15D0B8F5801F1FD111E0B8F5E5
:1010E000001F0ED0B8F5041F18D10AE0CB6815E038
:1010F000CB681B1D12E0CB6808330FE0CB680C33C4
:101100000CE08B682BB1012B4FF0080303D0456135
:1011100004E0042302E0056100E00023FF2A01D877
:10112000064601E000F104064FEA840501D9A5F165
:101130002005D6F8008007FA05FC28EA0C0803FA17
:1011400005F548EA0508C6F800804D68ED0062D54F
:10115000374DAE6946F00106AE61AD6924F0030675
:1011600005F001050095334D06EB050CDCF8085041
:10117000A607360F07FA06F825EA0805DFF8B88053
:10118000404503D14FF0000817E044E0DFF8AC80A1
:10119000404502D14FF001080FE0DFF8A480404540
:1011A00002D14FF0020808E0DFF89880404502D1F4
:1011B0004FF0030801E04FF0040808FA06F848EA87
:1011C0000508CCF808804D68D9F80060ED034D465D
:1011D00001D5164300E096432E604D68DAF80060B2
:1011E000AD03554601D5164300E096432E604D6889
:1011F000DBF80060ED025D4601D5164300E0964342
:101200002E604D68DEF80060AD02754601D51643CC
:1012100000E096432E60641C0D682A46E5407FF48A
:1012200031AFBDE8F88F000000040140000011104C
:10123000001002400000014000080140000C014085
:1012400000100140001401400AB101617047090417
:10125000FBE700000148806870470000380000206C
:10126000024881680278114481607047380000208C
:10127000074810B5016841F010010160032000F03B
:101280008BF80F2000F006F800F024F8002010BDC5
:101290000020024070B50D4D04464FF47A71287855
:1012A000B1FBF0F00A490968B1FBF0F001F02EF84B
:1012B00048B9102C07D200222146501E00F04CF8ED
:1012C00000206C6070BD012070BD0000380000205F
:1012D00044000020174808B5816941F0010181618F
:1012E000816901F001010091C16941F08051C16142
:1012F000C069002200F0805000900F21901E00F085
:101300002BF800220521042000F026F8042000F02C
:1013100015F805210022084600F01EF8052000F00F
:101320000DF80548416821F0E06141F0007141602D
:1013300008BD00000010024000000140002809DB49
:1013400000F01F02012191404009800000F1E020DF
:10135000C0F8001170470000F0B40E4B1B680C463B
:10136000C3F30223C3F10705042D00D90425191D79
:10137000072901D2002300E0DB1E012606FA05F151
:10138000491E214099409E40761E16403143F0BCD4
:1013900004F095BA0CED00E0064900F00702086879
:1013A0004FF6FF03184040EA0220034A104308604A
:1013B000704700000CED00E00000FA0510B50C06C7
:1013C00007D501F0070101EB810100EBC1002830D6
:1013D00005E001EB810100EBC10000F5B47099B2AA
:1013E00032B1012202730181190C4181002010BD2C
:1013F00000220273C180F9E7704701EB810200EB24
:10140000C202D0F8E802D26B03F015B901EB8102F9
:1014100000EBC202D0F8E802D2F87C2103F06EB9EA
:1014200070B504460B0601F0070000EB800104EBE9
:10143000C1014FF001024FF0000503D581F82920CA
:10144000283103E081F8695101F5B471087094F80E
:10145000A802012808D084F8A822206803F08EFD95
:1014600084F8A852002070BD022070BD70B50446FB
:1014700001F00F006268904201D9012070BD0B0697
:1014800001F0070000EB800104EBC1014FF0010205
:101490004FF0000503D581F82920283103E081F8B9
:1014A000695101F5B4718D70087094F8A802012893
:1014B00008D084F8A822206803F0FDFD84F8A85223
:1014C000002070BD022070BD2DE9F05F04685FEA66
:1014D000424C0B788D69B4F850C04FF000064BF6C3
:1014E0008F7948F2800A48F68F7B48F2C00E4FF49D
:1014F00080672AD54FF0020808EBC308C44407EB05
:101500004C07E45BC4F30904A54203D32D1B8D6192
:1015100001D00BE08E61066836F8235005EA090514
:1015200085F4005545EA0A0526F82350520609D5E8
:101530000D78036833F8252002EA0B0242EA0E0216
:1015400023F8252084B30A8929E04FF0060808EB28
:10155000C308C44407EB4C07E45BC4F30904A54289
:1015600003D32D1B8D6101D00BE08E61066836F828
:10157000235005EA090585F4005545EA0A0526F8D1
:101580002350520609D40B78056835F8232002EA67
:101590000B0242EA0E0225F823202CB14A89496940
:1015A0000068234604F00CF92046BDE8F09F2DE9C1
:1015B000F05F054600680C465FEA426C16468B6990
:1015C0002278B0F850C048F68F774CF280094FF679
:1015D000FF7B4FF4004E4FF4806A4FF000017BD543
:1015E0004FF0020808EBC208E0440AEB480C30F860
:1015F0000C00C0F30900834211D91B1AA3610FD05C
:10160000730407D52E6836F822303B4043EA0903BD
:1016100026F8223094F82420012A50D04EE1A1610E
:10162000607810B1012813D01AE02868B0F8503063
:10163000184400EB0210B0F8042422F4F842A0F899
:101640000424B0F8042442F40042A0F8042407E083
:101650002868B0F85030184400EB0210A0F80414C9
:101660006278286812B1012A11D018E0B0F8501041
:101670000844217800EB0110B0F80C1421F4F84173
:10168000A0F80C14B0F80C1441F4004105E0B0F8D7
:1016900050201044227800EB0210A0F80C1421789E
:1016A0002846FFF7AAFE7004B8D521782A6832F8D8
:1016B0002100384040EA090022F82100FEE062697A
:1016C00002446261E2690244E2612369226A9A4249
:1016D00003D31846111A04E038E084F824100AB144
:1016E00010462162617811B1012923D02BE02968CD
:1016F000B1F850201144227801EB021101F20441AB
:1017000048B13E280FD84208C30700D0521C0BEA4C
:1017100082220A8017E00A8822F4F8420A800A88A6
:1017200042F40042F5E74209C30600D1521E4EEAD8
:101730008222EEE72968B1F850201144227801EBAB
:101740000211A1F8040483B22289B3E04FF0060825
:1017500008EBC208E0440AEB480C30F80C00C0F378
:101760000900834211D31B1AA3610FD0730407D45D
:101770002E6836F822303B4043EA090326F822302F
:1017800094F82420012A50D098E0A161607810B12B
:10179000012813D01AE02868B0F85030184400EB44
:1017A0000210B0F8042422F4F842A0F80424B0F89F
:1017B000042442F40042A0F8042407E02868B0F8AA
:1017C0005030184400EB0210A0F804146278286826
:1017D00012B1012A11D018E0B0F850100844217855
:1017E00000EB0110B0F80C1421F4F841A0F80C142F
:1017F000B0F80C1441F4004105E0B0F8502010445A
:10180000227800EB0210A0F80C1421782846FFF78C
:10181000F4FD700452D42278296831F8220038404F
:1018200040EA090021F8220048E06269024462614E
:10183000E2690244E2612369226A9A4203D31846AC
:10184000111A216204E00AB11046216284F82410C2
:101850006278296812B1012A22D029E0B1F850201B
:101860001144227801EB021101F20C4148B13E28EB
:101870000FD84208C30700D0521C0BEA82220A800C
:1018800016E00A8822F4F8420A800A8842F40042EC
:10189000F5E74209C30600D1521E4EEA8222EEE766
:1018A000B1F850201144227801EB0211A1F80C0488
:1018B000628983B26169286803F0A0FF21782A68F1
:1018C00032F8210048F6BF73184080F0300048F22B
:1018D0008003184322F821000020BDE8F09F01F0AA
:1018E000070101EB810100EBC100D0F884017047D2
:1018F0002DE9F04104460F0601F0070000EB8001DE
:1019000004EBC1014FF001064FF0000503D581F84B
:101910002960283103E081F8695101F5B47108703C
:101920000A61CB704A7802B1C881022B00D10D71D7
:1019300094F8A802012809D084F8A862206803F06E
:10194000EFF9284684F8A852BDE8F0810220FBE7B1
:1019500070B50C4601F0070505EB850100EBC101F0
:10196000C1E95F230022C1F8842181F8692181F84F
:10197000685101F5B4716207006803F0F1FB0020C3
:1019800070BD70B504460D4601F0070061688842DD
:1019900001D9012070BD29064FF000064FF0010269
:1019A00007D500EB800104EBC10181F82920283123
:1019B00007E005EB850104EBC10181F8696101F5E0
:1019C000B4718A70087094F8A802012807D084F8CE
:1019D000A822206803F0ABFB680702D006E00220D3
:1019E00070BD04F52C71206803F063FB84F8A862D5
:1019F000002070BD70B50C4601F0070505EB8501B0
:101A000000EBC101C1E90F23012281F84C208B6456
:101A100000234B6481F8292001F8285F62070068E1
:101A200003F09EFB002070BD1FB50446006803F064
:101A3000C3FE000402D5204601F003FE206803F037
:101A4000BBFE40050CD5206830F8441F21F48061AE
:101A50000180204600F026F90021204600F03DF9E3
:101A6000206803F0A9FE400405D5206830F8441F23
:101A700021F480410180206803F09EFE800405D59A
:101A8000206830F8441F21F400510180206803F0E1
:101A900093FEC00414D5206830F8401F21F00401E3
:101AA0000180206830F8401F21F0080101802046A5
:101AB00000F00BF9206830F8441F21F480510180B8
:101AC000206803F079FE00053ED5226800206946B3
:101AD00032F8203021F81030401CC0B20828F7D36B
:101AE00032F8400F40F001001080206830F8402F9D
:101AF00022F0010202802068B0F844205205FBD594
:101B000030F8442F22F4806202800020236831F8EC
:101B1000102023F82020401CC0B20828F6D32068EB
:101B200030F8401F41F008010180206830F8441F60
:101B300021F400610180206830F8401F41F0040169
:101B40000180204600F0FEF8206803F035FE800595
:101B500008D5206830F8441F21F400710180204628
:101B600000F0B7F8206803F027FEC00505D520680F
:101B700030F8441F21F4807101801FBD2DE9F04130
:101B800086B0040004D094F8A902002520B108E032
:101B9000012006B0BDE8F08184F8A852204600F08C
:101BA0005BF8032084F8A902206803F07BFA04F1B3
:101BB0001001142288466846FEF7B7FB94E80F0030
:101BC00003F0DAF90226D0BB0021206803F00EFEF4
:101BD000002001270FE000BF00EB800104EBC101F2
:101BE00081F8297001F8280FC881CD700D614D6111
:101BF000401CC0B28D6161688142EDD8002011E0C7
:101C000000EB800104EBC10181F8695181F86801A2
:101C100081F86B51C1F87851C1F87C51401CC0B2B9
:101C2000C1F8805161688142EAD814224146684671
:101C3000FEF77BFB94E80F0003F02BFA10B184F859
:101C4000A962A5E784F8245084F8A972206803F0FB
:101C50001EFA00209DE7000008B500680F49884281
:101C60001AD10F48C16941F40001C161C069002265
:101C700000F40000009005211320FFF76DFB1320F6
:101C8000FFF75CFB002201211420FFF765FBBDE894
:101C900008401420FFF752BB08BD0000005C004064
:101CA0000010024070B5044680680125022801D06A
:101CB000FEF7C3FC2946D4F8E80202F008FED4F887
:101CC000E802BDE8704002F0C4BDD0F8E80202F0BE
:101CD000E8BDD0F8E80202F0EEBD10B5044690F879
:101CE000A80201280BD0012084F8A80284F824104F
:101CF000206803F07DFD002084F8A80210BD0220BA
:101D000010BDD0F8E82200F52C71104602F0EBBDB2
:101D100010B5044690F8A802012810D0012084F8DC
:101D2000A802206803F022FD01212046FFF764FB92
:101D3000206803F0AAF9002084F8A80210BD022050
:101D400010BD000010B50446D0F8E80202F00AFE0B
:101D5000A069002804D00348016841F00601016031
:101D600010BD000010ED00E02DE9F84305460078B5
:101D7000354CC00754D0E0690026C00008D4E069A3
:101D800040F08050E061E069012600F08050009052
:101D90002E480168C90512D40168804641F480715B
:101DA0000160FFF757FA074605E000BFFFF752FA58
:101DB000C01B642823D8D8F80000C005F6D5206AD7
:101DC00010F4407021D0A98801F4407181421CD0E8
:101DD000206A1F49012220F440700A6000220A6034
:101DE0002062C00711D0FFF735FA074641F2883864
:101DF00008E000BFFFF72EFAC11B414502D90320BE
:101E0000BDE8F883206A8007F4D5206A696820F469
:101E10004070084320621EB1E06920F08050E0610C
:101E20002878800705D56068A96820F440400843F9
:101E300060602878C00605D56068E96820F48000F5
:101E4000084360600020DBE70010024000700040A3
:101E5000400442422DE9F0470F46050061D0434E51
:101E6000306800F00700B84209D2306820F007005F
:101E700038433060306800F00700B84251D128681C
:101E80003B4C810712D5400703D5606840F4E06001
:101E900060602878000703D5606840F46050606097
:101EA0006068A96820F0F000084360602878C007E7
:101EB00028D06868012810D02168022810D089072E
:101EC00000292EDA616821F0030101436160FFF708
:101ED000C1F9804641F288390DE021688903EFE7B6
:101EE0008901EDE7FFF7B6F9A0EB0801494502D9F2
:101EF0000320BDE8F0876068696800F00C00B0EB73
:101F0000810FEFD1306800F00700B8420BD930687C
:101F100020F0070038433060306800F00700B84216
:101F200001D00120E5E72878400705D56068E96819
:101F300020F4E060084360602878000706D56068F8
:101F4000296920F4605040EAC100606000F018F890
:101F50006168084AC1F30311515CC8400649086032
:101F600006480068FFF796F90020C2E7002002400B
:101F700000100240C8880008440000203C000020F7
:101F800012A185B00FC98DE80F0014A0144A006893
:101F900004905168134801F00C03042B10D0082B57
:101FA0000ED1C1F38343C9031DF803000AD551685C
:101FB00004AAC1F34041515C0A4A5043B0FBF1F01E
:101FC00005B0704708494843FAE7000002030405DA
:101FD000060708090A0B0C0D0E0F10100102000075
:101FE0000010024000127A0000093D002DE9F84F70
:101FF000040070D02078C04DC00749D06868C0F395
:102000008100012807D06868C0F38100022809D147
:102010006868C00306D52868800339D56068002841
:10202000E7D035E06068B0F5803F0BD010B1B0F577
:10203000A02F11D0286820F480302860286820F470
:10204000802002E0286840F480302860606890B109
:10205000FFF700F906460AE0286840F4802028606F
:10206000F0E700BFFFF7F6F8801B642873D82868F4
:102070008003F7D50CE0FFF7EDF8064605E000BF5A
:10208000FFF7E8F8801B6428F0D828688003F7D4AD
:1020900020789A4E80074FF001094FF0000839D59B
:1020A000686810F00C0F07D06868C0F38100022840
:1020B00009D16868C00306D42868800714D5206950
:1020C000012808D110E02069B0B1C6F80090FFF7F0
:1020D000C1F8074605E00AE1FFF7BCF8C01B02287B
:1020E000C4D828688007F7D52868616920F0F8000F
:1020F00040EAC10028600DE0C6F80080FFF7AAF8AA
:10210000074604E0FFF7A6F8C01B022823D828687A
:102110008007F7D4207800072CD57948A169D9B178
:10212000C0F80090FFF796F8074604E0FFF792F832
:10213000C01B02280FD8686A8007F7D571484FF492
:10214000FA510068B0FBF1F0009000BF0098411E0A
:102150000091FAD20EE080E0C0F80080FFF77AF834
:10216000074604E0FFF776F8C01B022875D8686AB6
:102170008007F7D42078400760D5E8690027C000C1
:1021800008D4E86940F08050E861E869012700F070
:10219000805000905C480168C90513D401688346EB
:1021A00041F480710160FFF755F8824606E000BFF8
:1021B000FFF750F8A0EB0A0064284ED8DBF80000C7
:1021C000C005F5D5E06801280AD008B1052813D06C
:1021D000286A20F001002862286A20F0040002E04A
:1021E000286A40F001002862E06841F2883B98B11B
:1021F000FFF730F882460BE0286A40F004002862BE
:10220000EEE700BFFFF726F8A0EB0A0159455AD8C0
:10221000286A8007F6D50CE0FFF71CF8824605E037
:10222000FFF718F8A0EB0A0159454CD8286A800737
:10223000F6D41FB1E86920F08050E861E06988B306
:102240006968C1F38101022944D00228C6F8608080
:1022500004D0FEF7FFFF044638E034E0FEF7FAFF53
:10226000074604E0FEF7F6FFC01B02282BD82868BB
:102270008001F7D4206AB0F5803F05D16868A16875
:1022800020F4003008436860D4E908010843696815
:1022900021F4741108436860C6F86090FEF7DAFF15
:1022A000044606E025E000BFFEF7D4FF001B02282D
:1022B00009D828688001F7D51BE000BFFEF7CAFFE8
:1022C000001B022802D90320BDE8F88F286880018E
:1022D000F4D40EE00128F7D06868226A00F4803157
:1022E000914204D1616A00F47010884201D001204B
:1022F000EAE70020E8E70000001002400000424248
:1023000080044242440000200070004010B5401E8E
:10231000B0F1807F01D3012010BD4FF0E024606157
:102320000F21601703F0CBFA0020A0610720206185
:10233000002010BD7047704710B590F83C20012A6E
:1023400022D0012280F83C20CA688C6822F44072B6
:1023500022434C6822F4806222430C6822F400621B
:1023600022430C6922F4805222434C6922F4005229
:102370002243C969002322F480420A4301684A6467
:1023800080F83C30002010BD022010BD70B590F8E0
:102390003C20012A26D0012480F83C40022280F80B
:1023A0003D2003685A689D6822F070060A6832432F
:1023B0005A600D4B02689A4208D0B2F1804F05D0A6
:1023C0000A4B9A4202D00A4B9A4204D1496825F03E
:1023D00080031943916080F83D40002180F83C1053
:1023E000084670BD022070BD002C01400004004072
:1023F0000008004090F83D10012901D001207047ED
:10240000022180F83D1000680B49884208D0B0F1E5
:10241000804F05D00949884202D00949884204D139
:10242000816801F00701062903D0016841F001012C
:102430000160002070470000002C014000040040B3
:10244000000800402DE9F05F064600680127DFF82C
:10245000E4B30025DFF8E083B0F1804F73D1307F23
:10246000F64C01283CD1DFF8D89399F80400D8B392
:1024700001287CD10021204600F099FEA9F8140023
:102480002068016A21F00A0101622068016A016284
:102490000021204600F042FCB9F81410B9F81200EF
:1024A000081AA9F80000B9F8020088B105F0A4FFE5
:1024B0008246B9F8000005F09FFF514605F0A2FEE4
:1024C000594605F0E1FF05F05FFFC1B2A9F806101B
:1024D00089F80450B9F80000C0F5FA60A8F80000C7
:1024E000307F022826D08CE0FFE70021D34800F09F
:1024F0005EFEA9F812002068016A21F00A0101625B
:102500002068016A41F0020101620021CB4800F01D
:1025100005FC89F80470B9F81010484639B1428AB0
:10252000511AA9F80210418AA9F81010D8E7A9F8A1
:102530000250F8E7DFF8089309F1160999F804004A
:1025400010B1012827D029E10421BC4800F02FFE5A
:10255000A9F812002068016A21F0A0010162206838
:10256000016A41F0200101620421B44800E08FE1DA
:1025700000F0D4FB89F80470B9F81010484639B15E
:10258000428A511AA9F80210418AA9F8101038E0BD
:10259000A9F80250F8E70421A84800F008FEA9F8BD
:1025A00014002068016A21F0A00101622068016A1C
:1025B00001620421A14800F0B1FBB9F81410B9F888
:1025C0001200081AA9F80000B9F8020088B105F055
:1025D00013FF8246B9F8000005F00EFF514605F0E2
:1025E00011FE594605F050FF05F0CEFEC1B2A9F824
:1025F000061089F80450B9F80000C0F5FA60A8F890
:102600000200307F042864D1DFF8349209F12C09EC
:1026100099F8040010B1012825D0BFE008218748AF
:1026200000F0C5FDA9F812002068016A21F40071CC
:1026300001622068016A41F40071016208217F484B
:1026400000F06CFB89F80470B9F81010484639B1F5
:10265000428A511AA9F80210418AA9F8101038E0EC
:10266000A9F80250F8E70821744800F0A0FDA9F885
:1026700014002068016A21F4007101622068016A77
:10268000016208216D4800F049FBB9F81410B9F84F
:102690001200081AA9F80000B9F8020088B105F084
:1026A000ABFE8246B9F8000005F0A6FE514605F0E3
:1026B000A9FD594605F0E8FE05F066FEC1B2A9F88D
:1026C000061089F80450B9F80000C0F5FA60A8F8BF
:1026D0000400307F082861D1DFF8649109F14209D4
:1026E00099F8040010B1012825D057E00C21534877
:1026F00000F05DFDA9F812002068016A21F4005184
:1027000001622068016A41F4005101620C214B48CA
:1027100000F004FB89F80470B9F81010484639B18C
:10272000428A511AA9F80210418AA9F8101035E01E
:10273000A9F80250F8E70C21404800F038FDA9F84C
:1027400014002068016A21F4005101622068016AC6
:1027500001620C21394800F0E1FAB9F81410B9F817
:1027600012004C46081AA9F80000B9F8020078B126
:1027700005F042FE8146208805F03EFE494605F000
:1027800041FD594605F080FE05F0FEFDC0B2E08037
:1027900025712088C0F5FA60A8F80600294930683C
:1027A000884275D1307F284C01283ED1DFF89090C7
:1027B00009F1580999F80400D8B3012868D100211B
:1027C000204600F0F4FCA9F814002068016A21F00A
:1027D0000A0101622068016A01620021204600F0BE
:1027E0009DFAB9F81410B9F81200081AA9F80000F7
:1027F000B9F8020088B105F0FFFD8246B9F8000083
:1028000005F0FAFD514605F0FDFC594605F03CFE89
:1028100005F0BAFDC1B2A9F8061089F80450B9F85C
:102820000000C0F5FA60A8F80800307F022833D015
:102830006FE00BE000007A442802002054050020DD
:10284000E4050020000400409C0500200021A5486C
:1028500000F0ADFCA9F812002068016A21F00A011D
:1028600001622068016A41F00201016200219D4875
:1028700000F054FA89F80470B9F81010484641B1D4
:10288000428A511AA9F80210418AA9F81010CCE71F
:1028900087E0A9F80250F7E7DFF84C9299F80400B6
:1028A000D8B301287DD104218E4800F080FCA9F81E
:1028B00014002068016A21F0A00101622068016A09
:1028C00001620421874800F029FAB9F81410B9F818
:1028D0001200081AA9F80000B9F8020088B105F042
:1028E0008BFD8246B9F8000005F086FD514605F0E3
:1028F00089FC594605F0C8FD05F046FDC1B2A9F8AE
:10290000061089F80450B9F80000C0F5FA60A8F87C
:102910000A00307F042826D066E0FFE704217148D2
:1029200000F045FCA9F812002068016A21F0A0011E
:1029300001622068016A41F02001016204216948B6
:1029400000F0ECF989F80470B9F81010484639B174
:10295000428A511AA9F80210418AA9F81010D8E742
:10296000A9F80250F8E7DFF8809109F1160999F803
:102970000400E8B301286FD108215A4800F017FC81
:10298000A9F814002068016A21F40071016220682E
:10299000016A01620821534800F0C0F9B9F8141027
:1029A00000E059E0B9F81200081AA9F80000B9F8D7
:1029B000020088B105F020FD8246B9F8000005F05C
:1029C0001BFD514605F01EFC594605F05DFD05F066
:1029D000DBFCC1B2A9F8061089F80450B9F8000070
:1029E000C0F5FA60A8F80C00307F082834D100E068
:1029F00035E03D4E2C36307980B301282CD10C21A6
:102A0000384800F0D4FBB0822068016A21F40051FC
:102A100001622068016A01620C21324800F07EF9EF
:102A2000B08A718A401A3080708878B105F0E4FC71
:102A30000446308805F0E0FC214605F0E3FB5946EA
:102A400005F022FD05F0A0FCC0B2F08035713088A1
:102A5000C0F5FA60A8F80E00BDE8F09F24E0082158
:102A6000204800F0A4FBA9F812002068016A21F4B4
:102A7000007101622068016A41F40071016208215D
:102A8000184800F04BF989F80470B9F8101048465E
:102A900039B1428A511AA9F80210418AA9F81010D6
:102AA000A2E7A9F80250F8E70C210E4800F07FFBDE
:102AB00070822068016A21F4005101622068016A75
:102AC00041F4005101620C21064800F027F93771EA
:102AD000308A28B1718A081A7080708A3082BBE708
:102AE0007580FAE79C050020520600202DE9F04190
:102AF000054690F83C000C46012836D0012085F8A8
:102B00003C008AB3042A42D02868082A51D0D4E96C
:102B10000023E168066A26F480560662C669076AE1
:102B200026F4407646EA03234FF6FF7606EA0131A3
:102B300023F4704319434FF4005627F4005306EA78
:102B400002321A43C16102622868C16921F44061FE
:102B5000C1612868C169A26841EA0221C1610020FF
:102B600085F83C00BDE8F08101E00220FAE7D4E9F5
:102B70000012E368286801F017FA2868816921F0DB
:102B80000C01816128688169A26811430FE0D4E9D2
:102B90000012E368286801F033FA2868816921F49B
:102BA0004061816128688169A26841EA02218161EE
:102BB000D5E7D4E90027267B016A21F48071016200
:102BC000C169036A21F00301394321F0F00731079D
:102BD0004FF4007647EA116123F4007306EA0222FB
:102BE0001A43C16102622868C16921F00C01C16108
:102BF0002868C169A2681143B0E710B5040003D08A
:102C000094F83D0010B107E0012010BD002084F8C9
:102C10003C00204600F01EF8022084F83D00211DF3
:102C2000206801F0DBF8012084F8460084F83E00BB
:102C300084F83F0084F8400084F8410084F84200A2
:102C400084F8430084F8440084F8450084F83D008B
:102C5000002010BD10B586B00024009401940294A9
:102C60000394026829492A48B2F1804F32D0294B97
:102C70009A422DD1CA6942F00202CA61CA6902F0C1
:102C8000020204928A6942F004028A618A6902F0AF
:102C9000040204928A6942F008028A61896901F09B
:102CA00008010491C02100916946FEF7DDF9032077
:102CB000CDE90004694618480294FEF7D5F90022D0
:102CC00011461D20FEF748FB5FF01D00FEF736FBA6
:102CD00006B010BDCA6942F00102CA61CA6902F0B9
:102CE000010204928A6942F004028A61896901F052
:102CF000040104910F2100916946FEF7B5F9002205
:102D000011461C20FEF728FB1C20DFE700100240C4
:102D10000008014000040040000C014010B50446CA
:102D200051B104290DD0082910D094F8410094F82D
:102D30004520012811D10EE094F83E0094F842207D
:102D4000F7E794F83F0094F84320F2E794F8400046
:102D500094F84420EDE7012A01D0012010BD0220A3
:102D600051B1042911D0082918D084F8410084F801
:102D700045000C291BD136E084F83E0084F842005F
:102D80002068C26842F0020210E084F83F0084F834
:102D900043002068C26842F0040207E084F8400063
:102DA00084F844002068C26842F00802C260012230
:102DB000206801F049F80E492068884208D0B0F137
:102DC000804F05D00B49884202D00B49884204D17C
:102DD000816801F00701062903D0016841F0010173
:102DE0000160002010BD2068C26842F01002DDE7DB
:102DF000002C0140000400400008004070B504466B
:102E0000006801694FF00005C943890715D4C168FE
:102E1000C943890711D4E91E016101202077206888
:102E200080698007204602D0FFF70CFB04E000F029
:102E3000C7F8204600F06AF9257720680169C94380
:102E4000490717D4C168C943490713D46FF0040177
:102E50000161022020772068806910F4407F2046BD
:102E600002D0FFF7EFFA04E000F0AAF8204600F0E5
:102E70004DF9257720680169C943090716D4C1684F
:102E8000C943090712D46FF00801016104202077BB
:102E90002068C0698007204602D0FFF7D3FA04E01B
:102EA00000F08EF8204600F031F92577206801699E
:102EB000C943C90617D4C168C943C90613D46FF002
:102EC00010010161082020772068C06910F4407F5C
:102ED000204602D0FFF7B6FA04E000F071F8204671
:102EE00000F014F9257720680169C943C90708D1A2
:102EF000C168C943C90704D1891E0161204600F099
:102F000055F920680169C943090609D4C168C94354
:102F1000090605D46FF0800101612046FFF70AFA27
:102F200020680169C943490609D4C168C9434906F3
:102F300005D46FF040010161204600F04DF9206892
:102F40000169C94389060BD4C168C943890607D4FE
:102F50006FF0200101612046BDE87040FFF7EBB93A
:102F600070BD000000B585B0002100910191029173
:102F7000039100680E49884217D10E48816941F0DB
:102F8000040181618069694600F0040004904FF4F7
:102F90008070009012200190022003900648FEF7F6
:102FA00063F80021054800F0B3F805B000BD00004B
:102FB000002C014000100240000801400C050020D8
:102FC000704770B5044690F83C000D4601280AD0C1
:102FD000012084F83C0042B1042A18D0082A2AD0E3
:102FE0000C2A4DD139E0022070BD206800F03AFF74
:102FF0002068816941F0080181612068816921F0C0
:1030000004018161206881692A69114311E0206807
:1030100000F050FF2068816941F4006181612068FF
:10302000816921F480618161206881692A6941EAAE
:103030000221816124E0206800F068FF2068C169F6
:1030400041F00801C1612068C16921F00401C1613A
:103050002068C1692A69114311E0206800F082FFED
:103060002068C16941F40061C1612068C16921F42F
:103070008061C1612068C1692A6941EA0221C16198
:10308000002084F83C0070BD10B5040003D094F813
:103090003D0010B107E0012010BD002084F83C0085
:1030A000204600F01FF8022084F83D00211D206812
:1030B00000F094FE012084F8460084F83E0084F875
:1030C0003F0084F8400084F8410084F8420084F80E
:1030D000430084F8440084F8450084F83D00002053
:1030E00010BD000008B500680649884208D10648AE
:1030F000816941F400618161806900F400600090A1
:1031000008BD0000002C0140001002407047000084
:1031100010B50446022249B104290ED0082913D063
:1031200094F84100012816D0012010BD94F83E000B
:103130000128F9D184F83E200FE094F83F000128DF
:10314000F2D184F83F2008E094F840000128EBD148
:1031500084F8402001E084F841200122206800F03A
:1031600073FE0F492068884203D1426C42F400424A
:1031700042642068884208D0B0F1804F05D00949E8
:10318000884202D00849884204D1816801F00701D1
:10319000062903D0016841F001010160002010BD43
:1031A000002C014000040040000800407047024627
:1031B000002041B1042909D008290AD00C2901D1E5
:1031C0001068006C70471068406B70471068806B27
:1031D00070471068C06B70477047FEE7F0B500237A
:1031E0000A24302537261F4611E000BFB4EB107FBC
:1031F00002D905EB107C01E006EB107C01F813C04E
:1032000001EB430C00015B1C8CF80170DBB29342B4
:10321000ECD3F0BD0F4810B50D4901600C214160A1
:1032200000214FF400328160C0E90312D2004261F4
:10323000017641768176C17601774177FDF7E8FC2A
:10324000002803D0BDE81040FDF7F7B910BD00001D
:1032500000640040E404002010B596B01C2211491F
:103260006846FDF762F80021684602F03DFE0E4C0C
:103270000C491C22A0611C3107A8FDF756F800215B
:1032800007A802F031FE0749E0611C2238310EA880
:10329000FDF74BF800210EA802F026FE206216B0C2
:1032A00010BD000074880008000000202DE9F043E4
:1032B00085B000242E4800940194029403948169FF
:1032C00041F010018161816901F01001049181696F
:1032D00041F020018161816901F02001049181693F
:1032E00041F004018161816901F004010491816967
:1032F00041F0080181618069DFF8788000F0080002
:103300004FF400550490002229464046FDF79CFFEB
:10331000DFF864904FF44057002239464846FDF7E5
:1033200093FF0095022601250396CDE901546946D5
:103330004046FDF799FEE80200901048CDE90104EF
:1033400069464846FDF790FECDE90075CDE9025685
:1033500069464846FDF788FE002205212820FDF732
:10336000FBFF2820FDF7EAFF05B0BDE8F083000071
:103370000010024000100140000C0140000011103C
:1033800010B592B000240F941C2108A81094FCF7EB
:10339000FEFF20216846FCF7FAFF21481F49016023
:1033A00040F22B11C0E9011440F2CF71C0E90314BF
:1033B0008021C0E90541FFF767FE08B1FDF73DF93F
:1033C0000F940FA916481094FEF7E0FF08B1FDF71F
:1033D00034F96020CDE908040A940B940C940D9400
:1033E000002208A90E480E94FFF7EBFD08B1FDF787
:1033F00024F900944FF40050CDE904400294019464
:103400000394694606480794FEF796FF08B1FDF756
:1034100014F90348FFF7A6FD12B010BD002C0140BF
:103420000C05002010B586B00024244805940494AF
:103430000094019402944FF080410394016040F2A3
:10344000CF21C0E901144FF6FF71C0E90314846174
:10345000FFF7D3FB08B1FDF7F0F8049404A917486F
:103460000594FEF793FF08B1FDF7E7F80120CDE9D9
:10347000004002940022694610480394FFF736FB8F
:1034800008B1FDF7DAF8042269460C48FFF72EFB75
:1034900008B1FDF7D2F8082269460848FFF726FB75
:1034A00008B1FDF7CAF80C2269460448FFF71EFB75
:1034B000002801D0FDF7C1F806B010BD540500206A
:1034C00010B586B000242548059404940094019416
:1034D000029421490394016040F2CF21C0E9011414
:1034E0004FF6FF71C0E903148461FFF786FB08B152
:1034F000FDF7A3F8049404A918480594FEF746FFC5
:1035000008B1FDF79AF80120CDE9004002940022AD
:10351000694612480394FFF7E9FA08B1FDF78DF800
:10352000042269460D48FFF7E1FA08B1FDF785F876
:10353000082269460948FFF7D9FA08B1FDF77DF876
:103540000C2269460548FFF7D1FA002801D0FDF7A3
:1035500074F806B010BD0000000400409C05002077
:1035600010B500220F49104801F03EF808B1FDF7F0
:1035700064F80E490C4801F01BFA08B1FDF75DF83C
:103580000B49094800F03CFE08B1FDF756F8064823
:1035900001F064FA002803D0BDE81040FDF74DB8F3
:1035A00010BD0000B4000020CC160020F001002067
:1035B000040100202DE9F05F884683461C4615462D
:1035C00011461846DDF8289005F066F84FF400071C
:1035D000B84204DA84F00040294605F05DF88246DE
:1035E0004146584605F04DF8B84204DA88F00040EC
:1035F000594605F051F806464946584605F041F847
:10360000B84204DA89F00040594605F045F83146E1
:1036100004F0F8FD514604F037FF294604F084FD1C
:103620000646294604F0FCFE00D22E4621463046CE
:1036300004F0F6FF00D226463046BDE8F09FFEE7D4
:1036400070472DE9F84F044640F68F7B48F60F7A15
:103650004FF002094FF4806874E1B0F8441011F0A3
:103660000F063AD030F8267039047DD530F8261090
:1036700001EA0B0141F0800120F8261006EB8600DC
:1036800004EBC00595F8740105F5B47500286CD0FD
:10369000E87802286AD02878226832F8201048F6A4
:1036A0008F73194048F2C003194322F8201028787C
:1036B000D4F800C03CF82010BCF8502049047ED556
:1036C00009EBC000111808EB41003CF80000800530
:1036D000800D009074D02A89D8E0C9062DD40188C5
:1036E00001EA0A0141F400410180216804F1280542
:1036F000B1F850202B7809EBC300024408EB4200DC
:10370000085AC0F309006064E16B0844E0630021DB
:103710002046FDF772FE94F8240000289CD0A8698A
:10372000002899D194F82400216840F08000A1F885
:103730004C00002084F8240004E1018804F5B475ED
:103740000A0521D5B0F850202B78062101EBC301E2
:103750000A4408EB4201405A04F52C71C0F30903F6
:10376000EB61EA88206802E0ACE068E07AE002F011
:1037700027F82168088800EA0B0040F080000880E4
:103780002046FEF7BEFADDE00904D5D5018801EA3E
:103790000B0141F0800101802068B0F850202B78A7
:1037A000062101EBC3010A4408EB4201405A83059C
:1037B0009B0DEB6110D0696971B1EA8801E058E0B6
:1037C00056E0206801F0FCFFE96968690844686117
:1037D00000212046FDF71AFE2068018809052DD436
:1037E000B0F850100844296900F20C4051B13E294C
:1037F00010D84A08C90700D0521C4FF6FF7101EAE1
:1038000082210FE0018821F4F8410180018841F410
:10381000004107E04A09C90600D1521E4FF4004199
:1038200041EA82210180206801884BF68F721140A5
:1038300081F4405148F280021143018082E0D4F8C3
:1038400000C0BCF850102A78062000EBC2000144EA
:1038500008EB41003CF800008005800D00901AD074
:10386000EA8813E03A4629462046FDF72DFE0090EF
:1038700011E0062101EBC000111808EB41003CF8F3
:1038800000008005800D009005D06A8903466046DF
:10389000696901F095FFE96900980844E861696980
:1038A000009808446861A86918B1296900988142A4
:1038B00004D929782046FDF7A9FD03E029462068B0
:1038C00001F04EFC38063DD506EB860004EBC00146
:1038D000206830F8262002EA0A0242F4004220F86A
:1038E000262091F82B002831032804D018B1022893
:1038F00024D1F80522D42368B3F850200D7809EBC1
:10390000C500024408EB4200185A8A69C0F3090056
:1039100082420CD9121A8A610BD04A6902444A6168
:10392000CA691044C861206801F01AFC0AE000204E
:103930008861E9B22046FDF760FD03E03A46204683
:10394000FDF735FE2068B0F8441009043FF585AE58
:103950000020BDE8F88F70471B4900200A88A2F2BA
:103960000172752A00D301204A88A2F20172752AD9
:1039700000D3401C8A88A2F20172752A00D3401C31
:10398000CA88A2F20172752A00D3401C0A89A2F2E9
:103990000172752A00D3401C4A89A2F20172752A6D
:1039A00000D3401C8A89A2F20172752A00D3401C00
:1039B000C989A1F20171752900D3401C08B100200A
:1039C00070470120704700002802002008B5CB484E
:1039D000FEF710FD0021C948FFF79AFBDFF824A38A
:1039E000C74C0025DFF820934FF4000B01260AF1A5
:1039F0003408C4491022583140F2013003F0DCF998
:103A0000FFF7AAFFF8B1BAF80C00A0F5E7610429A6
:103A100003D825712570A67001E0A17869B1A0F2E4
:103A200067710F2903D8207838B9267109E0A0F50D
:103A3000E060122809D8207808B1257105E002203D
:103A40002071E67001E025712670207920B10128EF
:103A500015D0022870D10AE1C8F80050C8F8045007
:103A6000C8F80850C8F80C50C8F81050C8F81450DE
:103A7000C8F81850C8F81C5088F8206037E1BAF828
:103A80000600A0F5E76104297ED85746BAF804007D
:103A900004F0B2FC00904FF07E539C4A9C499D4834
:103AA000FFF788FD80F00040A060388804F0A4FC97
:103AB00000904FF07E53954A97499848FFF77AFD5A
:103AC00080F00040E060584501DA80F00040944901
:103AD000884200DCE560A068584501DA80F00040CB
:103AE000884200DCA560A06804F0F2FA0746009165
:103AF000E06804F0EDFA3A46009B02F077F8894A54
:103B0000894B03F0D5FF03F039FD884920618842D5
:103B100003DD874904F0C0FD0AE010F1FF4F01D238
:103B200088420FDB8349884207D9814904F0FCFAB7
:103B30002061FF20607006E0B7E07F4900F1FF40A0
:103B4000884200D26670E06804F0C2FA00224FF0AA
:103B5000804302F0F3F907460091A06804F0B8FA38
:103B600000224FF0804302F0E9F93A46009B03F04F
:103B700037FD03F0DFF903F001FD07466061BAF895
:103B80000E00A0F5E76000E038E0042894F9010099
:103B90001AD804F019FC394604F076FCC8F8000085
:103BA000C8F80400C8F80800C8F80C00206980F0C4
:103BB0000040C8F81000C8F81400C8F81800C8F889
:103BC0001C0088F8205039E004F0FEFB394604F070
:103BD0005BFCC8F80000C8F80400C8F80800C8F882
:103BE0000C0047464FF03F41206904F04DFC38611E
:103BF000C7E90505FD6187F820501FE04746504A98
:103C00004E49C7E90412C7E9061288F8205004F0AB
:103C1000F3FB00904FF07E533C4A3F493F48FFF78B
:103C2000C9FC80F000406061584580F0004101DA35
:103C300081F00040C7E90001C7E90210BAF8081096
:103C4000A1F5E76104292E4901F1050101D80D70A4
:103C500000E00E70BAF80A00A0F5E76004282848D2
:103C600000F1050001D845701FE046701DE02549B0
:103C700010310A68C8F800204A68C8F804208A6829
:103C8000C8F80820CA68C8F80C200A69C8F81020CB
:103C90004A69C8F814208A69C8F81820CA69C8F89F
:103CA0001C2091F8201088F8201098F82000012896
:103CB0001DD040F2365100BFC9F80010104F7F1DD3
:103CC0003878012816D000224FF480511D48FDF7A6
:103CD000BBFA787801280FD05FF000024FF4005152
:103CE0001848FDF7B1FA0A2002F0F2F881E64FF425
:103CF0007A71E1E70122E7E70122EFE70C050020F6
:103D00000000002028020020342C0140000080BF69
:103D10000080ED440000E14400C0EE440000E044B7
:103D20000AD7A33DCDCCCCCCCC8C4C400000B442C7
:103D3000000034430000B4C200003442681149421C
:103D4000681149C2000C014010B5FDF789FA03F073
:103D500041FB012803D0BDE8104003F0CDBA10BDEF
:103D600030B593B028216846FCF711FB14210AA84E
:103D7000FCF70DFB002401200F9410941194010412
:103D800012948DE8130004900005CDE90810022577
:103D900007956846FEF72AF90F20CDE90A05680263
:103DA000CDE90C4001210AA80E94FEF753F810202B
:103DB0000F90800412900FA8FDF7D6FF13B030BD0E
:103DC000704700000148FFF719B8000054050020B3
:103DD0000148FFF713B800009C050020F0B5026809
:103DE000164B174C174D4FF08047984205D0B842FC
:103DF00003D0A04201D0A84203D122F070064A6845
:103E00003243984205D0B84203D0A04201D0A84224
:103E100003D122F44074CA6822434C6922F0800224
:103E2000224302608A68C2620A688262984201D1B3
:103E30000969016301214161F0BD0000002C0140CE
:103E4000000400400008004010B501F01F030121EC
:103E5000046A99408C430462016A9A4011430162EA
:103E600010BD000030B5026A22F001020262026A4F
:103E70004368846924F073050C682C4322F0020522
:103E80008A682A430A4DA8420BD122F00805CA6865
:103E900023F440732A434D6922F004021D438B69C9
:103EA0002B434360846149684163026230BD000076
:103EB000002C014030B5026A22F010020262026A50
:103EC000436884690D6824F4E64444EA05248D6857
:103ED00022F0200242EA05120B4DA8420ED1CD6815
:103EE00022F0800242EA05124D6923F4406343EA5E
:103EF00085038D6922F0400243EA850343608461B3
:103F000049688163026230BD002C014030B5026A0D
:103F100022F480720262036A4268C46923F4007367
:103F200024F073050C682C438D6843EA05230C4D7F
:103F3000A8420ED1CD6823F4006343EA05234D69FE
:103F400022F4405242EA05128D6923F4806342EA6A
:103F500005124260C4614968C163036230BD00005C
:103F6000002C014030B5026A22F480520262046AD9
:103F70004268C3690D6823F4E64343EA05238D686C
:103F800024F4005444EA0534064DA84204D14D6996
:103F900022F4804242EA85124260C36149680164AA
:103FA000046230BD002C014070B5046A24F00104A5
:103FB00004628469056A0F4EB04208D0B0F1804FA8
:103FC00005D00D4EB04202D00C4EB04203D124F0C9
:103FD0000304144301E044F001041A0724F0F00440
:103FE00044EA126225F00A0301F00A0119438261D2
:103FF000016270BD002C0140000400400008004038
:1040000030B5046A24F0100404628469056A24F45B
:10401000407444EA022222F470444FF6FF7202EA2E
:1040200003322243A02425F0A00304EA011119431E
:104030008261016230BD2DE9F041D0F8C032D0F884
:10404000B822CAB101EB810500EB85040026E769BF
:104050003FB103EBC5039B6BB7FBF3F503FB157394
:1040600023B1C2F814620020BDE8F08100231A4693
:10407000E66100F080FCF6E70220F5E770B5054642
:10408000D0F8B84200F07BFBC4F80C02D5F8B802B7
:1040900048B1D5F8BC12D4F80402CA6804F503711B
:1040A0009047002070BD022070BD70B50446002608
:1040B000812100F0B7FA002501212046E56200F0D9
:1040C000B1FA82212046C4F86C5100F0ABFA2564A5
:1040D000D4F8B80248B1D4F8BC0204F52E74406894
:1040E0008047206800F017FE2560304670BD10B58F
:1040F000D0E9AE4159B194F80002FF2807D08B688F
:1041000094F8012221469847FF2084F800020020FD
:1041100010BD00000A2101800048704718010020EE
:10412000432101800048704768010020432101803D
:104130000048704724010020432101800048704757
:10414000AC0100202DE9F04104460026007C4FF42C
:104150000077012590B3402302228121204600F000
:1041600063FB4023E56202220121204600F05CFB54
:104170000823032282212046C4F86C5100F054FB2E
:104180004FF40770256400F0C7FDC4F8B802F8B119
:104190000546D4F8BC02006880470020C5F8140228
:1041A000C5F81802207CD5F8042298B140230121DB
:1041B000204600F045FB3046BDE8F081FFE73B4676
:1041C00002228121204600F02FFB3B46E562CAE730
:1041D0000126F0E73B46EAE710B5D0F8B81269B11E
:1041E000027C002AD1F8042205D04023012100F0EE
:1041F00027FB002010BD4FF40073F7E7022010BD2D
:1042000002460220002902D00020C2F8BC127047EA
:10421000D0F8B802C0F8041200207047D0F8B802F5
:10422000C0F81022C0F80812002070472DE9FC41A8
:104230000546D0F8B87200208DF80000ADF80400F3
:10424000064608780C4610F0600121D020293BD1A9
:10425000E288AAB10006607807D5D5F8BC128B6851
:1042600039469847E288394626E087F80002A07967
:1042700087F80102E2883946284600F06AF828E00B
:10428000D5F8BC12607800228B682146984720E060
:10429000607820B10A2809D00B2815D110E095F8D4
:1042A0009C02032810D1022201A905E095F89C0286
:1042B000032809D101226946284600F064F808E085
:1042C00095F89C02032804D02146284600F036F8D1
:1042D00002263046BDE8FC8110B5D0F8B812A1B175
:1042E000D1F814220AB1012010BD0122C1F8142214
:1042F000D1F810220263B1F8102293B2D1F808224B
:10430000812100F038FB002010BD022010BD10B547
:10431000D0F8B42252689047002010BD134610B563
:104320000A46002100F08CFA002010BD134610B59B
:104330000A46002100F01FFB002010BD10B5044606
:10434000802100F0FDFA2046BDE81040002100F079
:10435000F7BA10B50323C0F85C21C0F89432C0F856
:10436000602113460A46002100F06AFA002010BDC1
:1043700010B505210023C0F894121A46194600F022
:104380005FFA002010BD10B50223C261C0F894325C
:10439000026213460A46002100F0EDFA002010BD2B
:1043A00010B504210023C0F894121A46194600F0F3
:1043B000E2FA002010BD000010B50A46024903A031
:1043C00000F0E2F8004810BD90190020434443205B
:1043D000436F6E66696700001220088000487047CE
:1043E000D400002010B50A46024903A000F0CCF822
:1043F000004810BD9019002043444320496E746565
:104400007266616365000000042008800048704700
:10441000D000002010B50A46024903A000F0B4F80D
:10442000004810BD9019002053544D6963726F65A8
:104430006C656374726F6E696373000010B50A4631
:10444000024903A000F0A0F8004810BD9019002018
:1044500053544D3332205669727475616C20436F2A
:104460006D506F727400000010B51A2008800A4861
:104470000168001D0468001D0068081809D00822A2
:104480000649FEF7ABFE0549042210312046FEF72F
:10449000A5FE0248801E10BDE8F7FF1FEA000020BD
:1044A000F8B504460020ADF8000048880D46010A22
:1044B000082948D2DFE801F04704091747473C457F
:1044C000D4F8B012207C0A6819E0207C022600286B
:1044D000D4F8B40205D0C16A6846884701464670E0
:1044E0003EE0816AF8E7C0B206282CD2DFE800F08F
:1044F000030A1014181CD4F8B002426805E069469B
:1045000090471CE0D4F8B0028268E2B1207CF6E764
:10451000D4F8B002C268F8E7D4F8B0020269F4E750
:10452000D4F8B0024269F0E7D4F8B0028269ECE74F
:10453000207C40B9D4F8B402416B684688470146F4
:104540000EE0207C20B129462046FFF7F7FEF8BD9B
:10455000D4F8B402016B68468847014607204870CA
:10456000BDF8000048B1EA8852B1824200D9024643
:10457000ADF800202046FFF706FFE8880028E6D1C6
:104580002046FFF70DFFF8BD70B5002300281ED0B0
:104590000446002502E06D1CEDB2641C2678002E56
:1045A000F9D1022404EB450414801278CA545B1C30
:1045B0000322CA5400245B1C06E0CA545B1CDAB216
:1045C0008C54521CD3B2401C0278002AF5D170BD25
:1045D00001004FF0000004D0012901D0022901D0D0
:1045E000022070470120704710B580B1D0F8B43276
:1045F00013B10023C0F8B43209B1C0F8B0120121E0
:1046000080F89C12027000F0BFF8002010BD02205C
:1046100010BD10B5D0F8C002FCF728FFBDE810406F
:10462000FFF7D6BF10B5D0F8C002FCF7F9FEBDE821
:104630001040FFF7CDBF2DE9F0411746044651B1B8
:10464000D4F8B40242691AB194F89C02032851D0FC
:104650000220BDE8F081D4F89432002504F1140062
:10466000022B03D0042B3AD0C3B33CE0D0E9036360
:104670009E4207D9F11AC1608AB239462046FFF737
:1046800055FE12E08068B0FBF3F103FB110199B90C
:10469000984211D3D4F8981288420DD200221146C4
:1046A0002046FFF743FEC4F8985200231A461946E5
:1046B000204600F0C5F816E0D4F8B402C16829B16C
:1046C00094F89C02032801D1204688478021204687
:1046D00000F036F92046FFF74BFE04E0FFE78021AB
:1046E000204600F02DF994F8A002012804D184F8A6
:1046F000A05201E0204690470020AAE770B5154679
:10470000044649B1D4F8B40282691AB194F89C0203
:10471000032830D0022070BDD4F8941204F5AA709A
:10472000032902D005291ED027E0D0E903218A42BF
:104730000BD9531AC3600846834200D303469AB28A
:1047400029462046FFF7EAFD17E0D4F8B4020169D4
:1047500029B194F89C02032801D1204688472046BD
:10476000FFF71EFE09E000200146C4F8940220462F
:1047700000F0E6F801E020469047002070BDD0F838
:10478000C002FDF7ACB8000010B504461C481D4936
:10479000C0F8E842C4F8C00201600821416002216B
:1047A000816000218161C1610162FDF7E7F908B113
:1047B000FBF743FF0022D4F8C0021823114604F58A
:1047C0003074FCF7FBFD5823002280212068FCF7A1
:1047D000F5FDC023002281212068FCF7EFFD4FF496
:1047E0008873002201212068FCF7E8FD4FF48073F4
:1047F000002282212068FCF7E1FD002010BD0000AE
:1048000080250020005C00400A0601F07F01D0F8FE
:10481000C00201EB810100EBC10002D590F82A0033
:10482000704790F86A01704710B51C461346D0F8DF
:10483000C0022246FDF75CF8BDE81040FFF7C8BE95
:1048400010B5D0F8C002FDF783F8BDE81040FFF7BF
:10485000BFBE70B50022044640231146FFF7E4FFB7
:1048600040260125C4F86461334600228021204699
:10487000C4F85851FFF7D8FF6662A56184F89C52CE
:104880000020C4F894026060C4F8A402D4F8B8020E
:1048900028B1D4F8B4020021426820469047002095
:1048A00070BD90F89C12042903D190F89D1280F8F5
:1048B0009C120020704710B590F89C12032904D177
:1048C000D0F8B412C96901B18847002010BD017445
:1048D0000020704710B5D0F8C002FDF7FEF9BDE822
:1048E0001040FFF775BE70B5044600F52A70054606
:1048F00000F04AF80120C4F89402B4F8AE02C4F8FB
:10490000980294F8A80210F01F010AD001290DD0D6
:10491000022910D000F08001204600F011F800209C
:1049200070BD2946204600F09EF8F8E7294620464B
:1049300000F0CAF9F3E72946204600F01DF9EEE73A
:1049400010B5D0F8C002FDF71CF8BDE81040FFF725
:104950003FBE10B5D0F8C002FDF7DAF9BDE810404F
:10496000FFF736BE90F89C1280F89D12042180F863
:104970009C120020704710B5D0F8C002FDF73AF83D
:10498000BDE81040FFF724BE0A7802704A784270F2
:104990008A78CB7802EB032242800A794B7902EBCA
:1049A000032282808A79C97902EB0121C180704794
:1049B0000246002011B1C2F8B412704702207047BD
:1049C00010B5D0F8B42202241AB11268904700B989
:1049D0000024204610BD000070B50E461E4D89789B
:1049E00004462970012931D894F89C0202280BD082
:1049F00003280FD031462046FFF7A0FC2978204637
:104A0000BDE87040FFF783BCD9B10320616084F832
:104A10009C0209E071B16068884212D0C1B22046A0
:104A2000FFF775FC297861602046FFF7C9FF02286F
:104A30000CD006E0022084F89C0220466160FFF75B
:104A400066FC2046BDE87040FFF7AABC3146204610
:104A5000BDE87040FFF772BC1401002010B5FFF7ED
:104A600078FF002010BD2DE9F0410A78002612F0F1
:104A7000600208D0202A01D0402A70D1D0F8B42298
:104A8000926890476DE04B78002201250A2B66D290
:104A9000DFE803F0405D6557650805652C29FFF7E1
:104AA000FFFC5EE004468888D8B9C888C8B9488841
:104AB000802816D200F07F0794F89C02032810D0BB
:104AC00084F89E7239462046FFF704FF2046FFF720
:104AD00067FC1FB1022084F89C0242E084F89C52DB
:104AE0003FE020463BE0FFF777FF3AE0CB88012B21
:104AF00035D190F89C32012B04D0022B02D0032B2D
:104B00002DD104E08260012200F1080116E00122AB
:104B1000011D13E090F89C22012A03D0022A01D043
:104B2000032A1CD1CA88022A19D1C560D0F8A41260
:104B300009B10321C160022200F10C01FFF723FC3F
:104B40000FE0498801290CD1C0F8A45211E090F877
:104B50009C32012B08D0022B06D0032B04D0FFF788
:104B6000EDFB3046BDE8F08149880129F9D1C0F854
:104B7000A422FFF715FCF4E72DE9F0410A460446AC
:104B800010780027097910F060030AD0202B01D09B
:104B9000402B50D1D4F8B402114683682046984780
:104BA0008FE0C0F34110012806D05078D0B301281F
:104BB0002AD003283FD107E0D4F8B4021146836815
:104BC0002046BDE8F041184794F89C02022802D024
:104BD000032872D10AE071B380296ED02046FFF716
:104BE000AFFE80212046FFF7ABFE6AE0508838B95F
:104BF00031B1802904D0D08810B92046FFF7A0FE3B
:104C00002046FFF7CDFB5CE094F89C020228E2D03E
:104C1000032852D1508898BB4806F1D02046FFF7B0
:104C2000F8FCEDE7FFE794F89C020026022803D089
:104C3000032842D112E040E009B180293DD10806A5
:104C400001F07F0000EB800004EB800101D51431FE
:104C500001E001F5AA7102220E602AE0080601F0C7
:104C60000F0000EB800004EB80000AD5806920B3C0
:104C700001F07F0000EB800004EB800514350BE0B1
:104C80001FE0D0F85801C0B101F07F0000EB8000B8
:104C900004EB800505F5AA7541B1802906D02046B0
:104CA000FFF7B2FD10B10120286000E02E60022263
:104CB00029462046FFF767FB03E011462046FFF731
:104CC0003DFB3846BDE8F08170B5054608780C46D6
:104CD00010F0600003D0202801D0402816D195F8AC
:104CE0009C02012803D0022801D003280ED120798C
:104CF00001280BD8D5F8B402826828469047E1888D
:104D0000014306D12846FFF74BFB02E02846FFF798
:104D100015FB002070BD70470048704760230020DD
:104D20002DE9F0470C78002630F8243048F68F1231
:104D30001340CA78002A7DD0012A7CD0022A02D0F2
:104D4000032A7FD0012648F28002134320F8243042
:104D50000D7830F8254048F68F731C402C431443DF
:104D600020F825400D7B48F2C00C48F6BF744CF289
:104D700080074BF68F79EDB391F80080C24630F88A
:104D8000285048F280181D4045EA080520F82A50AE
:104D9000B0F8505091F80080054405EB0815B1F8C3
:104DA000088028F00108A5F80084B0F8505091F868
:104DB0000080054405EB0815B1F80A8028F00108C9
:104DC000A5F808844D78002D0D7830F825804FEA3D
:104DD00048487DD0B8F1000F07DA30F8258008EA9E
:104DE000030848EA070820F825800F7830F8275094
:104DF0006D0600E02CE006D530F827501D4045EA4E
:104E00000C0520F82750CB780D78012B30F8253091
:104E100003EA040301D083F02003134320F8253074
:104E20000B7830F8231001EA0901114320F8231010
:104E3000304602E003E008E004E0BDE8F08743F418
:104E4000007380E743F4C0637DE743F480637AE74F
:104E50004D782DB3B0F850500F78054405EB071589
:104E6000CF8827F00107A5F800740F7830F8275095
:104E70006D0606D530F827501D4045EA0C0520F890
:104E80002750CB78012B06D00B7830F82310214027
:104E900081F02001C9E70B7830F823102140C4E7E6
:104EA000B0F850400D78044404EB0514CD8825F08B
:104EB0000105A4F80854B0F850400D78044404EB00
:104EC00005140D6904F20C4475B13E2D14D800E0B0
:104ED00030E04FEA550CED0701D00CF1010C4FF614
:104EE000FF7505EA8C2511E0258825F4F845258015
:104EF000258845F4004509E04FEA551CED0601D12F
:104F0000ACF1010C4FF4004545EA8C2525800D7865
:104F100030F82540640405D530F825401C403C435A
:104F200020F825400B7830F8231001EA090181F4BC
:104F300040517AE7B8F1000F07DA30F8258008EA27
:104F4000030848EA070820F825800F7830F8275032
:104F50006D0606D530F827501D4045EA0C0520F8AF
:104F600027500D7830F8253003EA090383F44053C5
:104F7000134320F825308EE7002070472DE9F043D9
:104F800091F80C804F780A7848F6BF7C4BF68F7901
:104F900048F2800348F2C0054CF2800648F68F7450
:104FA000B8F1000F28D0002F30F822704FEA4747A1
:104FB00048D0002F05DA30F822702740374320F818
:104FC00022700A7830F822707F0605D530F82270FA
:104FD00027402F4320F822700D7830F825202240FA
:104FE000324320F825200C7830F8242002EA0C0205
:104FF0001A4320F824201AE07FB130F822607606A8
:1050000005D530F8226026402E4320F822600A7829
:1050100030F8221001EA0C010EE030F822506D0445
:1050200005D530F822502540354320F822500A7823
:1050300030F8221001EA0901194320F8221000205B
:10504000BDE8F083002F05DA30F82270274037439F
:1050500020F822700A7830F82260760605D530F8FC
:10506000226026402E4320F822600E7830F8262059
:1050700022402A4320F826200C7830F8242002EA27
:1050800009021A4320F82420C1E7002070470020BD
:105090007047012120F8401F00210180818001829A
:1050A0000846704730F8401F21F43F41018000203E
:1050B00070470020704730B50A7BB2BB4A7848F68B
:1050C0008F7548F28004C2B10B7830F82320520665
:1050D00007D530F823202A4048F2C0052A4320F89B
:1050E0002320CA78012A20D00A7830F8221048F606
:1050F000BF73194081F0200114E00A7830F82230A3
:105100005B0407D530F822302B404CF280052B434E
:1051100020F822300A7830F822104BF68F731940AD
:1051200081F44051214320F82210002030BD10B5F9
:105130004A780978002A48F2800330F8212005D007
:1051400048F6BF74224082F0100204E04BF68F74E0
:10515000224082F480521A4320F82120002010BD02
:105160002DE9F0470E464B78097B04464FF00009C5
:1051700048F68F7248F2800A4FF6FF774FF40048E6
:10518000012B09D000296ED0F07802286CD00128BC
:105190006BD00120BDE8F087B5693069854200D940
:1051A0000546C9B1F17848F28013022923D031783D
:1051B00034F821001040184324F82100306A401BC5
:1051C0003062307834F82010490671787ED5002995
:1051D0007DD001297CD03FE1ABB2F28820467169D5
:1051E00000F00CFBB4F850003178204400EB0110C3
:1051F000A0F80454EAE0316A81426AD9317834F87F
:1052000021001040184324F82100306A401B30620E
:10521000307834F82010490671786CD511B1012925
:1052200024D02AE0B4F85010214401EB001000F221
:105230000C404DB13E2D0FD86908EA0700D0491C3B
:1052400007EA8121018018E0018821F4F8410180FA
:10525000018841F40041F5E76909EA0600D1491ED9
:1052600048EA8121EEE79CE1BCE126E2B4F8502057
:10527000111901EB0010A0F80C547289ABB2204652
:10528000716900F0BBFA7069284470613169306A55
:10529000884202D9401B306202E00546C6F82090E1
:1052A000707800287CD1B4F850003178204400EBAD
:1052B000011000F204406DB13E2D13D86908EA07D1
:1052C00000D0491C07EA8121018012E001E19BE046
:1052D000BBE084E0018821F4F8410180018841F4B9
:1052E0000041F1E76909EA0600D1491E48EA812137
:1052F000EAE7328965E011B1012921D027E0B4F84D
:105300005010214401EB001000F204404DB13E2D3D
:105310000FD86908EA0700D0491C07EA81210180FB
:1053200015E0018821F4F8410180018841F4004131
:10533000F5E76909EA0600D1491E48EA8121EEE74E
:10534000B4F85010214401EB0010A0F80454328945
:10535000ABB22046716900F051FA7069284470615F
:105360003169306A884202D9401B306202E005464A
:10537000C6F82090707800287ED1B4F850003178BB
:10538000204400EB011000F20C4055B13E2D10D826
:105390006908EA0700D0491C07EA812101800FE073
:1053A00072E0018821F4F8410180018841F4004154
:1053B000F4E76909EA0600D1491E48EA8121EDE7D0
:1053C0007289ABB22046716900F018FA317834F86E
:1053D000210048F6BF72104080F03000C0E1327802
:1053E00034F8220048F68F63184040EA0A0024F897
:1053F0002200B4F850003278204400EB02108BB247
:10540000A0F804343289DDE7B4F85010214401EBF0
:10541000001000F20C404DB13E2D0FD86908EA078C
:1054200000D0491C07EA8121018015E0018821F4A0
:10543000F8410180018841F40041F5E76909EA0675
:1054400000D1491E48EA8121EEE7B4F85020111935
:1054500001EB0010A0F80C547289ABB220467169C0
:1054600000F0CCF97069284470613169306A884273
:1054700003D9401B306203E06EE00546C6F8209079
:10548000002DA3D0707858B101287FF41EAFB4F876
:1054900050003178204400EB0110A0F8045428E7B4
:1054A000B4F850003178204400EB011101F20441BE
:1054B0003E2D06D86808EA0700D0401C07EA802085
:1054C00005E06809EA0600D1401E48EA802008800D
:1054D0000FE711B1012921D027E0B4F85010214481
:1054E00001EB001000F204404DB13E2D0FD86908C9
:1054F000EA0700D0491C07EA8121018015E00188F4
:1055000021F4F8410180018841F40041F5E769097F
:10551000EA0600D1491E48EA8121EEE7B4F85010AE
:10552000214401EB0010A0F804543289ABB22046AC
:10553000716900F063F97069284470613169306AFB
:10554000884202D9401B306202E00546C6F820902E
:10555000002D96D0707858B101287FF420AFB4F8B0
:1055600050100819317800EB0110A0F80C5427E70F
:10557000B4F850003178204400EB011101F20C41E5
:105580003E2D06D86808EA0700D0401C07EA8020B4
:1055900005E06809EA0600D1401E48EA802008803C
:1055A0000EE7B1693069814202D9091AB161B5E0EB
:1055B0000846C6F81890B1E0088820F4F840088042
:1055C000088840F400400BE03E2875D84208C00728
:1055D00000D0521C07EA822002E000BF48EA822085
:1055E0000880B5E093B9B4F850003178204400EB5E
:1055F0000110316900F2044069B13E2913D84B080B
:10560000C90700D05B1C07EA83210180707888B14C
:10561000012832D03AE0018821F4F8410180018864
:1056200041F40041F1E74B09C90600D15B1E48EA8D
:105630008321EAE7B4F850003178204400EB0110F0
:10564000316900F20C4049B13E290FD84B08C90717
:1056500000D05B1C07EA8321018017E0018821F458
:10566000F8410180018841F40041F5E74B09C90682
:1056700000D15B1E48EA8321EEE7B4F85010081908
:10568000317800EB0110318AA0F80C14F069A8B34E
:10569000317834F82100430401D5430603D444F2A1
:1056A0004003184254D134F82100104048F2C0029F
:1056B000104324F821004BE03CE0B169306981429D
:1056C00002D9091AB16102E00846C6F818908BB9F0
:1056D000B4F850103278214401EB021101F2044178
:1056E00068B13E2813D84208C30700D0521C07EA0D
:1056F00082220A80717889B1012921D028E00A88A4
:1057000022F4F8420A800A8842F40042F1E7420992
:10571000C30600D1521E48EA8222EAE7B4F85010CC
:105720003278214401EB021101F20C4100287FF490
:105730004BAF41E74209C0067FF450AF521E4DE720
:10574000B4F850201119327801EB0211A1F80C04C1
:10575000317834F821004BF68F72104080F44050BD
:1057600040EA0A0024F82100002013E50021A0F8F7
:1057700044104FF43F41A0F8401000207047000053
:1057800010B50448FBF746F9BDE810400248FCF7A5
:105790004BB90000E40400208025002010B5044827
:1057A000FBF738F9BDE810400248FCF73DB90000AE
:1057B000E404002080250020B0F844007047000079
:1057C00010B500EB42005C0800F5806009D000BF16
:1057D00030F8042B01F8012B120A01F8012B641E8A
:1057E000F6D1DA0701D00088087010BD002070479C
:1057F00011B98021A0F84C100020704710B55B1C37
:1058000000EB42005B0800F5806009D011F8012B25
:1058100011F8014B42EA042220F8042B5B1EF5D15B
:1058200010BD01F0ADFB01F003FB052000F050FBC3
:10583000F9E7FEE730B50C46050014D0022C12D96A
:105840000A48A11E02882846FAF748FF2919C2B261
:1058500011F8023C9A4206D111F8011CB1EB102F4D
:1058600001D1012030BD002030BD0000B00000207B
:1058700030B50C4605000CD0022C0AD9FF22611E5F
:10588000FAF742FF291911F8011C814201D10120C8
:1058900030BD002030BD490050EAC12018BF0420AF
:1058A0004A0D18BF40F0010040F2FF72B2EB515FA9
:1058B00008BF40F00200012808BF05207047090713
:1058C000090E002804DB00F1E02080F80014704786
:1058D00000F00F0000F1E02080F8141D70472DE962
:1058E000F0414F1E00EBC7010446D1E90001154607
:1058F0001E4637F006020DD02A46334602F0D8F88D
:105900007F1E04EBC703D3E9002301F069FE37F0E3
:105910000602F1D1022F25D0042F13D0062F18BF75
:10592000BDE8F0812A46334602F0C2F8D4E90A23E2
:1059300001F056FE2A46334602F0BAF8D4E90823AD
:1059400001F04EFE2A46334602F0B2F8D4E90623AF
:1059500001F046FE2A46334602F0AAF8D4E90423B1
:1059600001F03EFE2A46334602F0A2F8D4E90223B3
:1059700001F036FE2A46334602F09AF8D4E90023B5
:10598000BDE8F04101F02CBE00221346104601494B
:1059900001F0E2BE0000F03F012202F024BF01F05E
:1059A0001FBE002213461046114601F0D5BE40F23C
:1059B000013200204FF0E04102F015BF024A002002
:1059C000110702F010BF000001FDFFFF2DE9F84FA5
:1059D00004460D4621F0004000917349814211DCDC
:1059E0007249884201DC06D12CB120462946BDE827
:1059F000F84FFFF7D1BF6E48002DCCBF6D496E49FF
:105A0000BDE8F88F6D49814211DD6D498142D8BFF3
:105A10004FF0FF366DDD20462946FFF73CFF042896
:105A200008BFFFF7CBFF20462946BDE8F88F654940
:105A3000654F25F00045814233DD6449814219DD1F
:105A4000002632464FF080432046294601F0C8FD2B
:105A500080468A4601222046294602F0C4FE0022E2
:105A60003B4602F04BFA4246534601F075FE0446AF
:105A70000D463EE001260022BA463B462046294616
:105A800001F0AEFD80460F460022534620462946CF
:105A900002F034FA42463B4601F05EFE04460D46F3
:105AA00027E04B4981421BDDDFF828A102260022B6
:105AB00053462046294601F0FBFF00223B4601F0F9
:105AC0008FFD80460F46002253462046294602F0AD
:105AD00015FA42463B4601F03FFE04460D4608E0FB
