:020000040800F2
:10000000401A0020210200080B250008831F000869
:100010000925000839060008392A000800000000F8
:10002000000000000000000000000000890100083E
:100030005307000800000000CD010008F925000862
:100040003B0200083B0200083B0200083B0200089C
:100050003B0200083B0200083B0200083B0200088C
:100060003B0200083B0200083B0200083B0200087C
:100070003B0200083B0200083B0200083B0200086C
:100080003B0200083B0200083B0200083B0200085C
:100090002D2A00083B0200083B0200083B02000832
:1000A0003B0200083B0200083B0200083B0200083C
:1000B0003B0200083B0200083B0200083B0200082C
:1000C0003B0200083B0200083B0200083B0200081C
:1000D0003B0200083B020008152A0008212A0008FC
:1000E0003B0200083B0200083B02000800F002F857
:1000F00000F03AF80AA090E8000C82448344AAF188
:100100000107DA4501D100F02FF8AFF2090EBAE885
:100110000F0013F0010F18BFFB1A43F0010318473B
:100120003454000054540000103A24BF78C878C1F9
:10013000FAD8520724BF30C830C144BF04680C60ED
:10014000704700000023002400250026103A28BF35
:1001500078C1FBD8520728BF30C148BF0B60704739
:100160001FB51FBD10B510BD00F0EAF81146FFF72E
:10017000F7FF02F087FD00F008F903B4FFF7F2FF84
:1001800003BC00F00BF90000224B19680868B0E8C6
:10019000F00F80F30988BFF36F8F4FF0000080F3FA
:1001A00011884EF00D0E70470000000006480068F0
:1001B000006880F3088862B661B6BFF34F8FBFF363
:1001C0006F8F00DF00BF00BF08ED00E0EFF3098094
:1001D000BFF36F8F0F4B1A6820E9F00F106008B55E
:1001E0004FF0500080F31188BFF34F8FBFF36F8F34
:1001F00003F012FE4FF0000080F31188BDE80840C4
:1002000019680868B0E8F00F80F30988BFF36F8FB2
:10021000704700BF50000020EFF3058070470000DA
:100220000948804709480047FEE7FEE7FEE7FEE78A
:10023000FEE7FEE7FEE7FEE7FEE7FEE704480549C6
:10024000054A064B704700005F260008ED000008D5
:1002500040140020401A00204016002040160020C4
:1002600010B5203AC0F00B80B1E81850203AA0E851
:100270001850B1E81850A0E81850BFF4F5AF5FEA85
:10028000027C24BFB1E81850A0E8185044BF18C938
:1002900018C0BDE810405FEA827C24BF51F8043BDF
:1002A00040F8043B08BF7047D20728BF31F8023B33
:1002B00048BF11F8012B28BF20F8023B48BF00F8C7
:1002C000012B70474FF0000200B513469446964646
:1002D000203922BFA0E80C50A0E80C50B1F1200159
:1002E000BFF4F7AF090728BFA0E80C5048BF0CC007
:1002F0005DF804EB890028BF40F8042B08BF704765
:1003000048BF20F8022B11F0804F18BF00F8012BD6
:10031000704770477047704710B500F009F80068E3
:1003200010BD10B5044600F003F8046010BD0000D5
:1003300000487047E013002000487047E013002099
:100340007546FFF7F9FFAE4605006946534620F0B3
:100350000700854618B020B5FFF770FFBDE82040C4
:100360004FF000064FF000074FF000084FF0000B71
:1003700021F00701AC46ACE8C009ACE8C009ACE824
:10038000C009ACE8C0098D46704710B50446AFF30C
:1003900000802046BDE81040FFF7EFBE014918205D
:1003A000ABBEFEE7260002007047B0F5000F04DA8E
:1003B00010F1FF4F02D380F00040704700207047DB
:1003C0002DE9F05F024648488B46464E41790025AC
:1003D000AA46725433783A2B03D080F805A0BDE8C2
:1003E000F09F2E2A02D00D2A04D000E08171491C12
:1003F0004171F4E781798146491ECCB224E000BF07
:1004000099F80600001B401E04F010F902460B4646
:100410000020364902F0A6FC0746305D8846303899
:1004200004F004F93A46434604F054F90746884676
:10043000284604F05FFC3A46434603F0E3FE03F02F
:10044000AFFE641E0546E4B2002CD9D199F806002F
:100450004C46401CC7B221E0A079C01B04F0E6F86E
:1004600002460B460020214902F07CFC8046F05DEC
:100470008946303804F0DAF842464B4604F02AF94F
:1004800080468946284604F035FC42464B4603F038
:10049000B9FE03F085FE7F1C0546FFB260798742F6
:1004A000DAD31348854204DD1249284604F0DAFE07
:1004B000054685F0004004F01DFC4FF033320E4B32
:1004C00003F05CFF03F06CFE84F805A0E17911B93C
:1004D00001216061E171616904F0C4FECBF80000A4
:1004E0007DE70000C4000020000000200000244040
:1004F000000034430000B4433333F33F2DE9F05F91
:10050000024648488B46464E81780025AA467254DA
:1005100033783A2B03D080F802A0BDE8F09F2E2A52
:1005200002D00D2A04D000E0C170491C8170F4E7AC
:10053000C1788146491ECCB224E000BF99F803007F
:10054000001B401E04F072F802460B46002036499C
:1005500002F008FC0746305D8846303804F066F843
:100560003A46434604F0B6F807468846284604F063
:10057000C1FB3A46434603F045FE03F011FE641EFC
:100580000546E4B2002CD9D199F803004C46401C32
:10059000C7B221E0E078C01B04F048F802460B46E1
:1005A0000020214902F0DEFB8046F05D89463038AC
:1005B00004F03CF842464B4604F08CF880468946ED
:1005C000284604F097FB42464B4603F01BFE03F01F
:1005D000E7FD7F1C0546FFB2A0788742DAD31348B7
:1005E000854204DD1249284604F03CFE054685F0AC
:1005F000004004F07FFB4FF033320E4B03F0BEFEA1
:1006000003F0CEFD84F802A0217911B90121A06187
:100610002171A16904F026FECBF800007DE70000FF
:10062000B0000020000000200000244000003443FF
:100630000000B4433333F33FFEE7000000B595B04C
:10064000002044F220010590CDE900100121039023
:1006500006910E22049044F24003CDE90812CDE940
:100660000A3002900D90CDE90E0107910C90CDE972
:100670001212109111910AA90E4800F0E3F808B186
:1006800000F068F869460B4800F0DCF808B100F0AB
:1006900061F80221074800F05EF808B100F05AF84E
:1006A000044800F0D7FB002801D000F053F815B043
:1006B00000BD0000B00500201CB56B46CDE900016F
:1006C000082240F20111002000F002F81CBD0000D9
:1006D00070B5002488B01E46254650B10420CDE9EF
:1006E000011000BFCDE903528DF814504FF6FE758E
:1006F00006E002950091F5E7641CA4B2AC420FD865
:10070000094800F08BF90028F6D0052000F044FCE1
:1007100006AB32466946044800F02FF8002800D0A6
:10072000012008B070BD0000B005002010B5002207
:100730000B46845C8C54521CD2B2042AF8D3191D87
:10074000002283181B798B54521CD2B2042AF8D38E
:1007500010BD7047704790F82020012A07D0022A68
:1007600005D0416A41F48021416201207047006850
:1007700042690A43426100207047F0B590F820506A
:100780000468A468012D05D0022D03D0416A41F40C
:10079000802153E014F0406F01D1E5004BD5C4F344
:1007A0000164022C03D9416A41F4000146E00125AD
:1007B000A5401D608D684FF4C0739DB1CE68354370
:1007C0004E6845EAC605066803EB0417F5514FF479
:1007D000C275076805EB04150E697E51097D012974
:1007E00005D009E00E88CD6845EA4655EBE701687B
:1007F0004E5946F480764E511179D2F805504FF497
:10080000C67641EA0525016806EB04168D5111787C
:10081000D2F801204FF4C47541EA0221026805EBC9
:1008200004155151006803EB0411425842F00102D3
:1008300042500020F0BD416A41F4001141620120A4
:10084000F0BD000010B590F820300268012B07D0F1
:10085000022B05D0416A41F480214162012010BD84
:10086000D2F8000240F00100C2F80002087D00F05A
:100870001F0301209840D2F81C328343C2F81C3277
:10088000CB69B3B9D2F80C328343C2F80C328C89ED
:100890004B6864F31F434C6902EBC404C4F8403254
:1008A0000C890B6864F31F434C6902EBC404C4F861
:1008B0004432CB69012B16D1D2F80C320343C2F873
:1008C0000C320C884B6864F31F434C6902EBC40480
:1008D000C4F840320C89CB6864F31F434C6902EBC7
:1008E000C404C4F844328B69002BD2F804320FD010
:1008F00053EA0003C2F804320B69002BD2F8143219
:1009000008D00343C2F81432096A012904D008E070
:100910008343EFE78343F5E7D2F81C120143C2F8A3
:100920001C12D2F8000220F00100C2F800020020E0
:1009300010BD704730B590F82040012C05D0022C36
:1009400003D0416A41F480215DE00468002955D05C
:100950002469A40754D04FF4D874056804EB01143B
:100960002D5915F00405956005682D594ED0ED08F8
:10097000556005682C5904F00204D4604FF4DA7411
:10098000056804EB01142D5905F00F051561056884
:100990002D59C5F30725956105682C59240C546120
:1009A0004FF4DC72046802EB0112A4581C70046856
:1009B000A458240A5C700468A458240C9C70046831
:1009C000A258120EDA704FF4DE72046802EB0112C4
:1009D000A4581C710468A458240A5C710468A458C3
:1009E000240C9C710468A258120EDA71006881B15F
:1009F000016941F020010161002030BDE468A8E7F1
:100A0000416A41F400114162012030BD6D0D156055
:100A1000AFE7C16841F02001C160EDE70246002068
:100A200092F82010012901D002290CD111688A689E
:100A3000520100D501208A68120100D5401C896846
:100A4000C90000D5401C70472DE9F05F05460068DD
:100A500000244669D0F804908768D0F80CB0D0F82C
:100A600010A0D0F81880F10748D0F90714D0012160
:100A70008160B80703D5284600F019FA0CE0780722
:100A800002D54FF4006407E0380702D54FF48054D4
:100A900002E0284600F00AFAF80516D529684FF456
:100AA00080708860B80503D5284600F002FA0CE093
:100AB000780502D544F4005407E0380502D544F423
:100AC000804402E0284600F0F3F9F80316D52968BF
:100AD0004FF480308860B80303D5284600F0EBF966
:100AE0000CE0780302D544F4004407E0380302D553
:100AF00044F4803402E0284600F0DCF9300707D5E2
:100B00005FEACB6004D52968102044F40074C86003
:100B100070074FF0080707D55FEA0B7004D5286807
:100B2000C760284600F066F9B00706D52868C06897
:100B3000800702D0284600F05FF9700607D55FEA0B
:100B4000CA6004D52968102044F480640861B006A6
:100B500007D55FEA0A7004D528680761284600F0C7
:100B600075F9F00606D528680069800702D0284686
:100B700000F06DF9B00308D55FEAC96005D52968B2
:100B800010204860284600F063F9F00307D55FEABB
:100B9000097004D528684760284600F08DF93004B4
:100BA00046D55FEA497040D5F00504D55FEAC870C4
:100BB00001D044F00104B00504D55FEA887001D586
:100BC00044F00204700504D55FEA487001D544F092
:100BD0000404300529D518F0700F26D008F07000F5
:100BE000402815D006DC102809D020280AD030284B
:100BF00016D10AE050280ED0602811D10EE044F042
:100C000008040DE044F010040AE044F0200407E07A
:100C100044F0400404E044F0800401E044F48074B3
:100C20002868816921F07001816129680420486089
:100C3000002C05D0686A204368622846FFF779FED9
:100C4000BDE8F09F70B5040003D094F8200010B107
:100C500004E0012070BD204600F082F820680168A1
:100C600041F00101016000F09FFA0546052604E00D
:100C700000F09AFA401B0A2811D820684068C00783
:100C8000F6D02068016821F00201016000F08CFAC2
:100C900005460BE000F088FA401B0A2806D9606A76
:100CA00040F40030606284F82060D2E72068406839
:100CB0008007EFD4207E0128206801683DD021F014
:100CC00080010160607E01282068016838D021F031
:100CD00040010160A07E01282068016833D021F026
:100CE00020010160E07E0128206801682ED041F0DB
:100CF00010010160207F01282068016829D021F0BF
:100D000008010160607F01282068016824D021F07B
:100D100004010160D4E902010843D4E9041211433B
:100D200008436168491E08432168C8610020606269
:100D3000012084F82000002070BD41F08001C0E750
:100D400041F04001C5E741F02001CAE721F0100160
:100D5000CFE741F00801D4E741F00401D9E70000F2
:100D600010B586B0002100910191029103910068B5
:100D70001C49884233D11C48C16941F00071C161EE
:100D8000C16901F000710491816941F0080181613C
:100D90008069164C00F0080004904FF480700090B9
:100DA0006946204600F00AF9601500900220019083
:100DB000032003906946204600F000F90C48416882
:100DC00021F4C04141F0E06141F4804141600022E2
:100DD0000121142000F05AFA142000F049FA06B05C
:100DE00010BD00000064004000100240000C0140F3
:100DF000000001407047000000B587B00F4B6A4605
:100E00000021FFF797FD002814D1029808B101983E
:100E100000E000980A490A78521C0A70A0F5007296
:100E200040F20221013A07D0884203D10549034824
:100E3000FFF77CFC07B000BD0349F8E7360000204F
:100E4000000000202C000020240000207047704784
:100E50007047000070B5044690F82000012804D0C7
:100E6000606A40F40020606218E0022084F82000EC
:100E70002068016821F00101016000F095F9054644
:100E80000EE000BF00F090F9401B0A2808D9606A04
:100E900040F400306062052084F82000012070BD1D
:100EA00020684068C007EDD1606270BD7047704730
:100EB0007047704770477047704710B590F8211021
:100EC0000022022905D00421816380F8202001201E
:100ED00010BD01680B6823F00E030B6001680B68FE
:100EE00023F001030B6090F84030C46B012101FA3C
:100EF00003F3636080F8211080F82020104610BDB5
:100F000010B590F821100024022903D00421816338
:100F100001243DE001680A6822F00E020A600168BF
:100F20000A6822F001020A601A4A0168914201D15E
:100F3000012121E0174A1432914201D110211BE016
:100F4000144A2832914201D1891515E0114A3C32E8
:100F5000914201D189140FE00E4A5032914202D1E0
:100F60004FF4803108E00B4A6432914202D14FF4D1
:100F7000801101E04FF08071064A083A516001216A
:100F800080F82110002180F82010416B01B18847C2
:100F9000204610BD0800024070B5044600F004F978
:100FA0000546601C02D004480078044400F0FCF8B8
:100FB000401BA042FAD370BD400000202DE9F84F3D
:100FC000DFF8B891002409F1040A0AF1040B234662
:100FD0000F270BF1040EC9E00125A5402A40AA42C3
:100FE0007DD1674ED1F804C0ACEB0608B44532D0D1
:100FF00014DCBCF1030F3AD009DCBCF1000F2AD09D
:10100000BCF1010F1CD0BCF1020F31D11DE0BCF1CD
:10101000110F17D0BCF1120F2AD119E0B8F5881FB3
:1010200019D006DCB8F5803F15D0B8F5801F1FD168
:1010300011E0B8F5001F0ED0B8F5041F18D10AE072
:10104000CB6815E0CB681B1D12E0CB6808330FE0BE
:10105000CB680C330CE08B682BB1012B4FF00803ED
:1010600003D0456104E0042302E0056100E00023B1
:10107000FF2A01D8064601E000F104064FEA840584
:1010800001D9A5F12005D6F8008007FA05FC28EA69
:101090000C0803FA05F548EA0508C6F800804D6813
:1010A000ED0062D5374DAE6946F00106AE61AD691F
:1010B00024F0030605F001050095334D06EB050C01
:1010C000DCF80850A607360F07FA06F825EA0805E7
:1010D000DFF8B880404503D14FF0000817E044E046
:1010E000DFF8AC80404502D14FF001080FE0DFF897
:1010F000A480404502D14FF0020808E0DFF8988054
:10110000404502D14FF0030801E04FF0040808FA0F
:1011100006F848EA0508CCF808804D68D9F8006060
:10112000ED034D4601D5164300E096432E604D6811
:10113000DAF80060AD03554601D5164300E096434A
:101140002E604D68DBF80060ED025D4601D5164368
:1011500000E096432E604D68DEF80060AD027546F3
:1011600001D5164300E096432E60641C0D682A46A4
:10117000E5407FF431AFBDE8F88F00000004014086
:101180000000111000100240000001400008014062
:10119000000C014000100140001401400AB101613F
:1011A00070470904FBE700000148806870470000B1
:1011B0004000002002488168027811448160704735
:1011C00040000020074810B5016841F0100101609F
:1011D000032000F07BF80F2000F006F800F024F860
:1011E000002010BD0020024070B50D4D04464FF4A4
:1011F0007A712878B1FBF0F00A490968B1FBF0F088
:1012000000F0F2FA48B9102C07D200222146501EF5
:1012100000F03CF800206C6070BD012070BD000043
:10122000400000204C0000200F4808B5816941F0C3
:1012300001018161816901F001010091C16941F001
:101240008051C161C069002200F0805000900F21E0
:10125000901E00F01BF80548416821F0E06141F064
:101260000071416008BD0000001002400000014014
:10127000002809DB00F01F02012191404009800095
:1012800000F1E020C0F8001170470000F0B40E4BF0
:101290001B680C46C3F30223C3F10705042D00D9D4
:1012A0000425191D072901D2002300E0DB1E0126B9
:1012B00006FA05F1491E214099409E40761E1640CF
:1012C0003143F0BC01F0CDBB0CED00E0064900F06D
:1012D000070208684FF6FF03184040EA0220034A5D
:1012E00010430860704700000CED00E00000FA05B4
:1012F0002DE9F0470F46050061D0434E306800F0FD
:101300000700B84209D2306820F007003843306047
:10131000306800F00700B84251D128683B4C810783
:1013200012D5400703D5606840F4E060606028781B
:10133000000703D5606840F4605060606068A96889
:1013400020F0F000084360602878C00728D0686863
:10135000012810D02168022810D0890700292EDA30
:10136000616821F0030101436160FFF71DFF8046C2
:1013700041F288390DE021688903EFE78901EDE743
:10138000FFF712FFA0EB0801494502D90320BDE891
:10139000F0876068696800F00C00B0EB810FEFD156
:1013A000306800F00700B8420BD9306820F0070021
:1013B00038433060306800F00700B84201D00120A7
:1013C000E5E72878400705D56068E96820F4E06023
:1013D000084360602878000706D56068296920F412
:1013E000605040EAC100606000F038F86168084A67
:1013F000C1F30311515CC840064908600648006803
:10140000FFF7F2FE0020C2E7002002400010024079
:10141000905400084C000020440000200448054976
:1014200000684968044AC1F30221515CC840704712
:101430004C00002000100240A05400080448054958
:1014400000684968044AC1F3C221515CC840704732
:101450004C00002000100240A054000812A185B0EA
:101460000FC98DE80F0014A0144A00680490516859
:10147000134801F00C03042B10D0082B0ED1C1F33C
:101480008343C9031DF803000AD5516804AAC1F3B8
:101490004041515C0A4A5043B0FBF1F005B070473F
:1014A00008494843FAE70000020304050607080953
:1014B0000A0B0C0D0E0F101001020000001002406C
:1014C00000127A0000093D002DE9F84F040070D0A9
:1014D0002078C04DC00749D06868C0F3810001285A
:1014E00007D06868C0F38100022809D16868C0038A
:1014F00006D52868800339D560680028E7D035E034
:101500006068B0F5803F0BD010B1B0F5A02F11D0BE
:10151000286820F480302860286820F4802002E0C9
:10152000286840F480302860606890B1FFF73CFE86
:1015300006460AE0286840F480202860F0E700BFF3
:10154000FFF732FE801B642873D828688003F7D524
:101550000CE0FFF729FE064605E000BFFFF724FE7A
:10156000801B6428F0D828688003F7D420789A4E2E
:1015700080074FF001094FF0000839D5686810F076
:101580000C0F07D06868C0F38100022809D1686891
:10159000C00306D42868800714D52069012808D123
:1015A00010E02069B0B1C6F80090FFF7FDFD0746D6
:1015B00005E00AE1FFF7F8FDC01B0228C4D828683F
:1015C0008007F7D52868616920F0F80040EAC1007B
:1015D00028600DE0C6F80080FFF7E6FD074604E04E
:1015E000FFF7E2FDC01B022823D828688007F7D444
:1015F000207800072CD57948A169D9B1C0F80090AE
:10160000FFF7D2FD074604E0FFF7CEFDC01B02281E
:101610000FD8686A8007F7D571484FF4FA5100680F
:10162000B0FBF1F0009000BF0098411E0091FAD28B
:101630000EE080E0C0F80080FFF7B6FD074604E04A
:10164000FFF7B2FDC01B022875D8686A8007F7D47F
:101650002078400760D5E8690027C00008D4E86911
:1016600040F08050E861E869012700F08050009068
:101670005C480168C90513D40168834641F4807150
:101680000160FFF791FD824606E000BFFFF78CFD89
:10169000A0EB0A0064284ED8DBF80000C005F5D5A1
:1016A000E06801280AD008B1052813D0286A20F084
:1016B00001002862286A20F0040002E0286A40F055
:1016C00001002862E06841F2883B98B1FFF76CFDA9
:1016D00082460BE0286A40F004002862EEE700BF73
:1016E000FFF762FDA0EB0A0159455AD8286A800726
:1016F000F6D50CE0FFF758FD824605E0FFF754FDF4
:10170000A0EB0A0159454CD8286A8007F6D41FB1CE
:10171000E86920F08050E861E06988B36968C1F346
:101720008101022944D00228C6F8608004D0FFF766
:101730003BFD044638E034E0FFF736FD074604E0A1
:10174000FFF732FDC01B02282BD828688001F7D490
:10175000206AB0F5803F05D16868A16820F40030A8
:1017600008436860D4E908010843696821F47411EA
:1017700008436860C6F86090FFF716FD044606E06F
:1017800025E000BFFFF710FD001B022809D82868DC
:101790008001F7D51BE000BFFFF706FD001B022804
:1017A00002D90320BDE8F88F28688001F4D40EE048
:1017B0000128F7D06868226A00F48031914204D190
:1017C000616A00F47010884201D00120EAE700202D
:1017D000E8E700000010024000004242800442425C
:1017E0004C0000200070004010B5401EB0F1807F1A
:1017F00001D3012010BD4FF0E02460610F2160177C
:1018000001F02FF90020A06107202061002010BD09
:1018100010B590F83C20012A22D0012280F83C200B
:10182000CA688C6822F4407222434C6822F48062B9
:1018300022430C6822F4006222430C6922F4805295
:1018400022434C6922F400522243C969002322F446
:1018500080420A4301684A6480F83C30002010BD91
:10186000022010BD70B590F83C20012A26D001243A
:1018700080F83C40022280F83D2003685A689D6849
:1018800022F070060A6832435A600D4B02689A4291
:1018900008D0B2F1804F05D00A4B9A4202D00A4BD1
:1018A0009A4204D1496825F080031943916080F879
:1018B0003D40002180F83C10084670BD022070BDFC
:1018C000002C0140000400400008004090F83D104A
:1018D000012901D001207047022180F83D100068E5
:1018E0000B49884208D0B0F1804F05D009498842A1
:1018F00002D00949884204D1816801F00701062914
:1019000003D0016841F00101016000207047000030
:10191000002C0140000400400008004010B586B0D3
:1019200000210091019102910391194C036819481B
:1019300012210222A34212D1836943F0040383617E
:101940008069039200F0040004904FF47060CDE9C8
:10195000000169461048FFF731FB104814E0104CB5
:10196000A34213D1836943F0080383618069039222
:1019700000F008000490C020CDE900016946094844
:10198000FFF71CFB05484830FFF7A0FF06B010BD6D
:10199000002C01400010024000080140D805002042
:1019A00000080040000C014070B5044690F83C006F
:1019B0000D4601280AD0012084F83C0042B1042AD7
:1019C00018D0082A2AD00C2A4DD139E0022070BD47
:1019D000206800F089FE2068816941F0080181617A
:1019E0002068816921F004018161206881692A6988
:1019F000114311E0206800F09FFE2068816941F4E6
:101A0000006181612068816921F4806181612068C1
:101A100081692A6941EA0221816124E0206800F09D
:101A2000B7FE2068C16941F00801C1612068C16941
:101A300021F00401C1612068C1692A69114311E0E4
:101A4000206800F0D1FE2068C16941F40061C161E5
:101A50002068C16921F48061C1612068C1692A6977
:101A600041EA0221C161002084F83C0070BD10B53C
:101A7000040003D094F83D0010B107E0012010BD30
:101A8000002084F83C00204600F01EF8022084F874
:101A90003D00211D206800F0E3FD012084F8460090
:101AA00084F83E0084F83F0084F8400084F8410048
:101AB00084F8420084F8430084F8440084F8450028
:101AC00084F83D00002010BD08B50C4A01680C48A0
:101AD000914207D1816941F400618161806900F41C
:101AE000006009E0074A914207D1C16941F0040151
:101AF000C161C06900F00400009008BD002C0140E5
:101B0000001002400008004010B50446022249B10E
:101B100004290ED0082913D094F84100012816D0CA
:101B2000012010BD94F83E000128F9D184F83E2030
:101B30000FE094F83F000128F2D184F83F2008E03C
:101B400094F840000128EBD184F8402001E084F8AB
:101B500041200122206800F0B9FD0F492068884229
:101B600003D1426C42F4004242642068884208D0AB
:101B7000B0F1804F05D00949884202D00849884217
:101B800004D1816801F00701062903D0016841F002
:101B900001010160002010BD002C01400004004044
:101BA0000008004070477047F8B5026804461068A6
:101BB000D168536910F00F0F4FF0000553D003F0B8
:101BC000010601F4907737435FD0C20705D0CA05FC
:101BD00003D5226C42F001022264420705D5DA07E0
:101BE00003D0226C42F002022264820705D5DA0794
:101BF00003D0226C42F004022264020707D501F0F0
:101C00002002324303D0226C42F008022264226C8C
:101C1000002A34D0800604D5880602D5204600F07C
:101C200025FE20684069216CC0F38010090700D4AC
:101C300030B3204600F002FE2068416949061BD5FA
:101C4000416921F040014161A06BA8B1584941634D
:101C5000A06BFFF755F9002811D0A06B416B01B0C4
:101C6000BDE8F040084783060FD58B060DD520460A
:101C7000BDE8F84000F0FABD2046FFF794FFF8BD3C
:101C80002046FFF790FF2564F8BD266B2023012E28
:101C900052D1C60650D5CE064ED510685068009079
:101CA000506940062AD5A16B086840680004000C02
:101CB000EAD0A68D8642E7D9E0858869202818D029
:101CC000D06820F48070D0602068416921F0010163
:101CD00041612068416921F04001416184F83E3052
:101CE00025632068C16821F01001C160A06BFFF777
:101CF000E4F8A08DE18D401A81B219E0A08DE18D4C
:101D0000401A81B2E08D0028BED00029BCD0D06836
:101D100020F49070D0602068426922F00102426194
:101D200084F83E3025632068C26822F01002C26049
:101D30002046FFF737FFF8BD05062BD50D0629D540
:101D400094F83D002128F6D1A068B0F5805F01D15C
:101D50002069B0B1206A411C216221680078486086
:101D6000E08C401E0004000CE084E4D12068C168CF
:101D700021F08001C1602068C16841F04001C1606C
:101D8000F8BD206A0088C0F308005060206A801CFB
:101D90002062E5E74006F3D54806F1D5D168204634
:101DA00021F04001D16084F83D3000F0E9F8F8BD41
:101DB0002D28000870B5040004D094F83D000025DB
:101DC00010B106E0012070BD84F83C50204600F0C0
:101DD00023F8242084F83D002068C16821F40051D4
:101DE000C160204600F09EFD2068016921F4904109
:101DF00001612068416921F02A0141612068C168C0
:101E000041F40051C1602564202084F83D0084F82D
:101E10003E00002070BD000030B585B00024009465
:101E20000194029403942E4D03682E48022103224C
:101E3000AB4227D1C36943F40033C361C36903F4E0
:101E400000330493836943F0040383618069264D62
:101E500000F0040004900420CDE9000103926946DB
:101E60002846FFF7ABF80820CDE90004694628466C
:101E70000294FFF7A3F8002202212620FFF706FABA
:101E8000262029E0194DAB4228D1C36943F48023B1
:101E9000C361C36903F480230493836943F0080397
:101EA00083618069039200F0080004902815CDE951
:101EB00000010F4D69462846FFF780F8E814CDE988
:101EC0000004694628460294FFF778F800220221B0
:101ED0002720FFF7DBF92720FFF7CAF905B030BD4F
:101EE000004400400010024000080140004800404B
:101EF000000C014090F83E30202B0ED159B152B168
:101F000090F83C30012B08D0012380F83C300023AE
:101F1000036300F063BD012070470220704700009A
:101F200010B5044600680F49884209D10E480F4990
:101F30000078FEF745FA01220B490D48FFF7DAFF5A
:101F40000C49206888420CD10B480C490078FEF7F8
:101F5000D5FA07480122BDE8104007494438FFF789
:101F6000C9BF10BD00480040340000200C00002014
:101F7000AC06002000440040350000201000002086
:101F80007047FEE7F8B50C464FF48051CF02304E53
:101F9000054610F1FF4F01D3002202E0BD4203DBF2
:101FA00001223046FFF7FAF8002208213046FFF7F9
:101FB000F5F8002210213046FFF7F0F84FF07E567A
:101FC000244B254A31462548009500F05FFA02F07F
:101FD000EDFF234908602846FEF7E7F9002200904C
:101FE000204B3146104600F051FA02F0DFFF1C4949
:101FF000091D08601C4ABC42009403DB1B4B1C49B2
:10200000002003E013461B4A00211B4800F03EFA63
:1020100005461A482146C068064603F023F920F019
:102020000040B0F1824F0DDA154924F0004088429B
:1020300008DD22463146134800F068FA294602F0CE
:1020400085FE0546284602F0B1FF0F490860F8BD3D
:10205000000C014000C09E4400803144000080BF5D
:10206000342C014000E0F94400007A440080A2448E
:1020700000000C4300002F4400000CC300000020AF
:102080000000A040CC02002034080040F8B50C4607
:102090004FF400518F02314E054610F1FF4F01D32E
:1020A000002202E0BD4203DB01223046FFF776F852
:1020B00000224FF480413046FFF770F800224FF4C1
:1020C00000413046FFF76AF84FF07E56244B254A10
:1020D00031462548009500F0D9F902F067FF234901
:1020E00008602846FEF761F900220090204B314637
:1020F000104600F0CBF902F059FF1C49091D086099
:102100001C4ABC42009403DB1B4B1C49002003E02B
:1021100013461B4A00211B4800F0B8F905461A482F
:1021200021460069064603F09DF820F00040B0F11A
:10213000824F0DDA154924F00040884208DD22461E
:102140003146134800F0E2F9294602F0FFFD05464A
:10215000284602F02BFF0F490860F8BD000C014033
:1021600000C09E4400803144000080BF3C2C0140F0
:1021700000E0F94400007A440080A24400000743D4
:1021800000002F44000011C3000000200000A04008
:1021900014030020380800400F4810B50D490160B5
:1021A0000C21416000214FF400328160C0E903122C
:1021B000D2004261017641768176C176017741771E
:1021C000FEF740FD002803D0BDE81040FEF7C2BA7C
:1021D00010BD000000640040B005002010B58EB0B6
:1021E0001C220B496846FEF73BF80021684600F0C8
:1021F0008FFD084C06491C22E0611C3107A8FEF740
:102200002FF8002107A800F083FD20620EB010BD5A
:1022100058540008000000202DE9F04186B0002449
:1022200025480094019402940394816941F01001BF
:102230008161816901F010010491816941F02001FF
:102240008161816901F020010491816941F00401FB
:102250008161816901F004010491816941F0080103
:1022600081618069154F00F008004FF4005504901B
:10227000002229463846FEF791FFDFF844804FF2EE
:102280001806002231464046FEF788FF0120CDE9BE
:102290000050022569463846CDE90245FEF78EFE1C
:1022A00001AA1120009682E8310069464046FEF7F7
:1022B00085FE06B0BDE8F08100100240001001402C
:1022C000000C014010B592B000240F941C21684608
:1022D0001094FDF7F7FF202107A8FDF7F3FF2D4825
:1022E0002B49016040F22B11C0E9011440F2CF717B
:1022F000C0E903148021C0E90541FFF7B8FB08B12C
:10230000FEF728FA0F940FA922481094FFF7AAFAB3
:1023100008B1FEF71FFA6020CDE90004029403948F
:1023200004940594002269461A480694FFF73CFB82
:1023300008B1FEF70FFA042269461648FFF734FB8E
:1023400008B1FEF707FA082269461248FFF72CFB8E
:1023500008B1FEF7FFF90C2269460E48FFF724FB8F
:1023600008B1FEF7F7F90794089409944FF4005068
:102370000A94CDE90B4007A906480E94FFF748FAE6
:1023800008B1FEF7E7F90348FFF7C8FA12B010BD2D
:10239000002C0140D805002010B58AB00024079415
:1023A0001C2168460894FDF78DFF1B481949016000
:1023B00040F22B11C0E9011440F2CF71C0E90314BF
:1023C00080218161FFF753FB08B1FEF7C3F9079441
:1023D00007A911480894FFF745FA08B1FEF7BAF9C2
:1023E0006020CDE900040294002269460A48049462
:1023F000FFF7DAFA08B1FEF7ADF90422694606489C
:10240000FFF7D2FA08B1FEF7A5F90348FFF786FAFD
:102410000AB010BD00080040200600200C4810B58E
:102420000A4901604FF416514160002181600C227D
:10243000C160C0E904128161C161FFF7BBFC0028E3
:1024400003D0BDE81040FEF785B910BD0044004040
:10245000680600200C4810B50A4901604FF4165177
:102460004160002181600C22C160C0E904128161D9
:10247000C161FFF79FFC002803D0BDE81040FEF7C4
:1024800069B910BD00480040AC0600202DE9F047B6
:102490008146089C1D4690460E46204602F0A6FE48
:1024A00000D234462146484602F0A0FE00D24C46F7
:1024B0004146284602F0D6FEFDF777FF0746314633
:1024C000484602F0C4FEFDF770FF06462146484626
:1024D00002F0BDFEFDF769FF314602F0A5FC39466A
:1024E00002F0B8FD414602F031FC0446414602F0DC
:1024F0007DFD00D244462946204602F077FE00D2F8
:102500002C462046BDE8F087FEE770472DE9F041F4
:1025100004000DD0206C6064E66B2664C4E90621DB
:10252000104602F09FFE0546E063207818B145E0B2
:102530000020BDE8F0812946606802F08BFD6062F2
:102540002946A06802F086FDA16A02F0FFFB07465B
:10255000A062606BA063206B60633146284602F086
:1025600081FE01462063E06802F074FDE0623846B7
:10257000616902F03BFE606908D380F00040A16A07
:1025800002F034FE03D2606980F00040A062D4E91A
:10259000090102F0DBFBE16A02F0D8FB206221694D
:1025A00002F024FE206908D380F00040216A02F086
:1025B0001DFE03D2206980F000402062206AB8E747
:1025C00010B50028029C16D0002A14D001701168A2
:1025D00041605168816000F10C0C91688CE81A0030
:1025E00000218163416301630162C16281624162D2
:1025F00041640164C16310BD10B5FEF7DBFD01F05D
:10260000FBFC012803D0BDE8104001F087BC10BDE1
:1026100030B58FB028216846FDF754FE14210AA872
:10262000FDF750FE01210804CDE9001000240294BA
:1026300002250491CDE907504FF4E0100990684657
:10264000FEF742FF0F20CDE90A056802CDE90C40F4
:1026500002210AA80E94FEF74BFE0FB030BD704762
:10266000F0B50268164B174C174D4FF08047984253
:1026700005D0B84203D0A04201D0A84203D122F035
:1026800070064A683243984205D0B84203D0A0424F
:1026900001D0A84203D122F44074CA6822434C6995
:1026A00022F08002224302608A68C2620A68826263
:1026B000984201D10969016301214161F0BD000027
:1026C000002C0140000400400008004010B501F05B
:1026D0001F030121046A99408C430462016A9A40F5
:1026E0001143016210BD000030B5026A22F0010200
:1026F0000262026A4368846924F073050C682C4303
:1027000022F002058A682A430A4DA8420BD122F022
:102710000805CA6823F440732A434D6922F0040275
:102720001D438B692B4343608461496841630262A6
:1027300030BD0000002C014030B5026A22F01002CA
:102740000262026A436884690D6824F4E64444EA3C
:1027500005248D6822F0200242EA05120B4DA842A2
:102760000ED1CD6822F0800242EA05124D6923F4B1
:10277000406343EA85038D6922F0400243EA850302
:102780004360846149688163026230BD002C01406E
:1027900030B5026A22F480720262036A4268C46938
:1027A00023F4007324F073050C682C438D6843EA0E
:1027B00005230C4DA8420ED1CD6823F4006343EAF3
:1027C00005234D6922F4405242EA05128D6923F433
:1027D000806342EA05124260C4614968C1630362D2
:1027E00030BD0000002C014030B5026A22F4805256
:1027F0000262046A4268C3690D6823F4E64343EA4F
:1028000005238D6824F4005444EA0534064DA8429B
:1028100004D14D6922F4804242EA85124260C361CC
:1028200049680164046230BD002C014010B5406A63
:102830000021C185C184FFF7B6F910BD0168CA68DF
:1028400022F49072CA6001684A6922F001024A616A
:10285000016B012904D10168CA6822F01002CA6024
:10286000202180F83E1000210163704708B590F8E0
:102870003E10222901D0022008BD82684FF4805307
:102880009A4201D1016921B1816A9A421BD04AB1B1
:102890000AE00268816A5268C2F308020A80816A0B
:1028A000891C08E0026972B10268526802F07F0276
:1028B0000A70816A491C8162C18D491E0904090C94
:1028C000C18503D019E002685268F1E70168CA685F
:1028D00022F02002CA600168CA6822F48072CA60CD
:1028E00001684A6922F001024A61202180F83E1005
:1028F000016B012903D0FFF713FB002008BD002165
:1029000001630168CA6822F01002CA6001680A689F
:10291000D20602D50A6849680091818DFFF742F915
:10292000EBE7000070B5044600680169E26821F435
:102930004051114301612169A0680843616908435E
:102940002168CA6841F20C639A430243CA60206856
:102950004169A26921F44071114341611E49206817
:10296000884202D1FEF76AFD01E0FEF757FD00EB59
:10297000C00101EB0012606864218000B2FBF0F33B
:10298000B3FBF1F36FF018067343B2FBF0F5B2FB43
:10299000F0F605EB8305322303EB0515B5FBF1F5E6
:1029A000B6FBF1F605F0F00505EB0615B2FBF0F607
:1029B000B2FBF0F0B0FBF1F06FF01802504306EB01
:1029C000800003EB0010B0FBF1F0216800F00F0075
:1029D0002844886070BD0000003801408162828513
:1029E000C28500210164222280F83E2080F83C103C
:1029F0000168CA6842F48072CA6001684A6942F09C
:102A000001024A610068C16841F02001C1600020F4
:102A1000704700000148FFF7C7B8000068060020B3
:102A20000148FFF7C1B80000AC0600200148FEF7DE
:102A30000BB80000B0050020FEE7490050EAC120B5
:102A400018BF04204A0D18BF40F0010040F2FF7289
:102A5000B2EB515F08BF40F00200012808BF05201B
:102A600070470907090E002804DB00F1E02080F818
:102A70000014704700F00F0000F1E02080F8141DF2
:102A800070472DE9F0414F1E00EBC7010446D1E924
:102A9000000115461E4637F006020DD02A46334681
:102AA00001F018FE7F1E04EBC703D3E9002301F0F9
:102AB000A9FB37F00602F1D1022F25D0042F13D045
:102AC000062F18BFBDE8F0812A46334601F002FE0A
:102AD000D4E90A2301F096FB2A46334601F0FAFDB9
:102AE000D4E9082301F08EFB2A46334601F0F2FDBB
:102AF000D4E9062301F086FB2A46334601F0EAFDBD
:102B0000D4E9042301F07EFB2A46334601F0E2FDBE
:102B1000D4E9022301F076FB2A46334601F0DAFDC0
:102B2000D4E90023BDE8F04101F06CBB002213465C
:102B30001046014901F022BC0000F03F01F062BBE9
:102B4000002213461046114601F018BC40F2013233
:102B500000204FF0E04102F02CBC0000024A0020AF
:102B6000110702F026BC000001FDFFFFDFF83C80EA
:102B700001260F4C4FF400570025607808B1002261
:102B800000E0012239464046FEF708FB207830B1CC
:102B900066702570D4E90301FDF78EFD01E06570D4
:102BA0002570642000F0A8F8E7E70000001001405D
:102BB0000000002008B52B482B4C009023462B4AE0
:102BC00000212B48FFF7FCFC2A480090274A2848A0
:102BD00023460C3200214830FFF7F2FC2648FEF76E
:102BE00075FE00212448FEF78FFF04212248FEF7DE
:102BF0008BFF08212048FEF787FF0C211E48FEF7B7
:102C000083FF1E48FEF762FE00211C48FEF77CFF92
:102C100004211A48FEF778FF4FF4FA6000F06CF8D0
:102C2000174F002607F1240404F1080578780128DD
:102C300010D026602E606660002108466E60FFF7A7
:102C4000A1F900214FEA0100FFF720FA012000F06E
:102C500053F8EBE7D4E90001FFF794F9D5E9000157
:102C6000F2E70000000020410000A04140540008AD
:102C7000CC02002000007041D80500202006002072
:102C800000000020FEF79EFAFFF7C2FCFFF7C4FA2F
:102C9000FFF782FAFFF716FBFFF7C0FBFFF77CFB9D
:102CA000FFF7D8FB4FF4FA60FEF776F9FDF7C6FCA4
:102CB000012251030848FEF771FA0122074908482A
:102CC000FFF718F9012207490748FFF713F9FFF743
:102CD00085FA00F018F8FEE70010014034000020EB
:102CE000AC060020350000206806002001460020C8
:102CF000842900D0C81C704710B500B9012001F02C
:102D000027F8002010BD10B501F048F8002010BDD4
:102D10007FB50D4604464169B0F9080081B1A1694B
:102D200071B1FFF7E3FFD4E905128DE80700D4E99C
:102D300000102B46226901F034F9039004B070BDF5
:102D4000FFF7D4FF03A9CDE90001208A2B4682B208
:102D5000D4E9001001F0F8F8012801D00020EDE7D7
:102D60000398EBE72DE9F04D1D460C4698B0174649
:102D700021F0004123F00043002814BF4FF0010C64
:102D80004FF0000C0CEB440CFE4A0CEB02064FEA31
:102D9000620C66452BD33E0018BF012606EB4506A4
:102DA0001644F94A964222D3F84A53EA070C02D055
:102DB000944205D148B918B000201146BDE8F08D05
:102DC000002808BF4FF0000C01D04FF0010C0CEBB5
:102DD000440212F5001F0AD8002F14BF4FF0010C57
:102DE0004FF0000C0CEB450212F5001F07D918B08C
:102DF0003A462B462146BDE8F04DFFF79FBE002224
:102E0000DFF88CA3002CB8BF534526DADFF884C363
:102E10006345A8BF022220DADFF870C39C451CDCA2
:102E2000DFF874C30CEB235CBCF1140F08DDCCF1AC
:102E3000340627FA06FC0CFA06F6BE420DD108E06D
:102E40005FB9CCF1140623FA06FC0CFA06F69E4292
:102E500003D10CF00102C2F1020251EA000C19D1B7
:102E6000002D17DA002C18BF022A01D0012A07D042
:102E70000220FDF756FA18B0BDE8F04DFFF756BE38
:102E80000220FDF74EFAFFF751FE18B081F0004125
:102E9000BDE8F08DB7F1000C6CD1534525D104F19C
:102EA000804212F5801201BF00280020B74918B0F7
:102EB00008BFBDE8F08DB548884207DC002DA1BFF2
:102EC0006046294618B0BDE8F08D07E0281E05DAF7
:102ED00080F0004118B06046BDE8F08DAF497944FC
:102EE000D1E9000118B0BDE8F08DDFF8A0C263455C
:102EF00025D1002D1FDA19B1514512D1D8B909E0F9
:102F0000002840F0EC82A24A214618B062F31E016C
:102F1000BDE8F08D0020214618B060F31E01BDE829
:102F2000F08D08DA18B02346BDE8F04D02460020C7
:102F3000614601F023BA18B02146BDE8F08D514535
:102F400018DAB5F1804F0DD0A5F1005CBCF1FF5C43
:102F500010D1B4F1000C0DDB18B06146BDE8F04DA6
:102F600000F00CBE234618B00246BDE8F04D1946ED
:102F700001F0B0BB060024F0004C3BD1D9B1514563
:102F800033D1002C06DD002DA1BF0020514618B022
:102F9000BDE8F08D002C01DD002D1BDB002C13DAC9
:102FA000002D11DB012A4FF0000014BF78497C4945
:102FB00018B0BDE8F08D022A18BF002C0AD0012AF3
:102FC00008D1002C06DA0AE0002CB8BF002D11DA77
:102FD000012A04D0002018B00146BDE8F08D18B0D9
:102FE00000204FF00041BDE8F08DA1F14050B0F15C
:102FF0007F601AD0012000EBE47050EA020421D077
:10300000624C521E4FF0000B104304BF4FF0000BF8
:10301000644C654883427CDD644A654893421FDD09
:10302000884217DB002D25DB37E0002C00DA4AB19F
:10303000022A0CBF01204FF0FF3018B0BDE8F04D60
:1030400001F0F4BA0120FDF76CF918B0BDE8F04DBD
:10305000FFF776BD4D4A8A4202DC002D0ADC1CE0F7
:10306000814202DA002D18DA04E0484B994220DD53
:10307000002D12DD0220FDF754F9FFF767FD05462C
:103080000E46002253465846214601F023FB18B055
:1030900066F31E012846BDE8F08D0220FDF741F9D8
:1030A000FFF75CFD0A46214618B062F31E01BDE839
:1030B000F08D00223046614601F032FD80460E461A
:1030C0006FF0010202F075F94FF05532394B01F003
:1030D00035FC4246334601F0FDFA0022364B01F042
:1030E0002DFC82464246334604911046194601F0B3
:1030F000F1FA5246049B01F0EDFA8A4600904FF037
:10310000C0422E4B4046314601F0E4FA2C4A2B4B8C
:1031100000E027E0CDE906015146009801F0DAFA17
:1031200082460191274A284B4046314601F0D2FAA7
:103130005246019B01F0F4FC82460B460246059183
:10314000DDE9060101F05EF8DDE906230026884688
:10315000304601F0E5FC5246059B01F0EFFB0246CC
:1031600000F07EB90020B1F5801F07DA3522304625
:10317000614602F01EF906466FF0340000EB215064
:1031800024E00000FFFF1F00FFFF0F000000F03FE2
:103190000000F07F0000404301FCFFFF4E260000CE
:1031A0000000F0FF0000F0BF0000E0410000F0432D
:1031B000FFFFEF3F5555D53F0000E03F4715F73F74
:1031C000FE822B6544DF5DF80BAE543EA0F2FF306B
:1031D0000190C1F3130040F07F6141F04051029132
:1031E000FE498842D8BF002004DDFD498142C8BFA6
:1031F000012001DD0D9008E000200D900198401C99
:1032000001900298A0F5801002900299F548784448
:103210000B910D9900EBC100D0E900230F933046CC
:103220000A920B9901F07CFCCDE90601DDE90A2147
:1032300030460F9B00F0E6FF02460B460020EA49AD
:1032400001F09CF8059102460B460090DDE906016D
:1032500001F040FA1490E5488A464FF0000878449F
:103260000299006812904FF0005040EA61010D98F9
:103270000F9B01EB804000F5002109910A9A1298FA
:1032800001F04EFC32460B9B01F058FB4246534680
:1032900001F020FA0646029140465146099B129AD7
:1032A00001F018FADDE9062301F048FB3246029BE3
:1032B00001F036FC059B009A01F00CFA0091149A7B
:1032C000049053461046194601F004FA0646024699
:1032D000C7480B46029106217844FFF7D2FBCDE99F
:1032E0000510029B32461046194601F0F3F9DDE95C
:1032F000053201F0EFF9059106465346404619465E
:10330000149A00F07FFF009B049A01F0E3F9324623
:10331000059B00F077FFCDE9051042465346104665
:10332000194601F0D7F90022B24B02910A9000F041
:1033300069FFDDE9053200F065FF0E464246AD4B00
:10334000404601F0EDFB029B0A9A01F0E9FBDDE942
:10335000053201F0F3FA424602910A9033461046D4
:10336000514601F0B7F9CDE906015346149A029986
:103370000A9801F0AFF98A46029033464246009916
:10338000049801F0A7F95346029A00F03BFF8246E9
:103390000B4602460591DDE9060100F033FFDDE949
:1033A000062300208846064601F0BAFB5246059BDC
:1033B00001F0C4FA824609914FF060428E4B3046CC
:1033C000414601F087F9049006918C4A8A4B504699
:1033D000099901F07FF982460291894A894B30466A
:1033E000414601F077F95246029B00F00BFF864BF5
:1033F0007B440D9A03EBC203D3E9002300F002FFE4
:103400000E900791019801F011F90591DDE906137D
:1034100082460E9A049800F0F5FE7C4A7A440D9B91
:1034200002EBC303D3E900230093029200F0EAFE0B
:103430005246059B00F0E6FE00268846524630467E
:10344000059B01F06DFB009B029A01F069FB069B56
:10345000049A01F065FB079B0E9A01F06FFA024691
:1034600000200B4602903846294601F033F9824687
:1034700001912B4638461946029A01F051FB32461B
:10348000434601F027F95246019B00F0BBFE074678
:103490008A46324643462946029801F01BF9054602
:1034A0000E463A46534600F0ADFE594A88469142D0
:1034B00021DBA8EB020353EA000210D12A4633466F
:1034C00001F02EFBCDE90401524A534B38465146D8
:1034D00000F098FEDDE9042301F0FAF921D2022080
:1034E000FCF71FFFFFF732FB0A46214618B062F3D4
:1034F0001E01BDE8F08D494B28F000429A4210D3DE
:10350000474A08EB020353EA00027FF4C6AD2A469D
:10351000334601F005FB3A46534601F0D9F97FF6F0
:10352000BCAD0022019228F000403E493E4A01EB2A
:103530002051824223DA481C4FF4801121FA00F016
:1035400040443A4AC0F30A517A44394BA1F2FF3160
:10355000CB4020EA0303C0F3130040F48010C1F114
:103560001401C84012680190B8F1000FBCBF40427E
:1035700001902846314601F0D3FA05460E462A4608
:1035800033463846514600F03DFE4FF000084246B3
:10359000284B4046059101F09DF8CDE90601264AE9
:1035A000264B4046059901F095F8009102902A4675
:1035B00033464046059901F0B3FA3A46534601F0C6
:1035C000BDF91F4A1F4B01F085F8009B029A00F0DD
:1035D00019FE0746884602460B4635E08E980300E2
:1035E0007AB60B00962200000000F03FCE220000C9
:1035F000FC2100000000084009C7EE3FFD033ADC53
:10360000F5015B14E02F3EBED4200000982000009E
:1036100000009040FE822B654715973C00CC9040FF
:1036200000346F3F01FCFFFF0000E03FE41F00009B
:10363000FFFF0F00432EE63F396CA80C615C20BEF3
:10364000EF39FAFE422EE63FDDE9060100F0DAFD31
:10365000DDE9062305460E4601F062FA3A46434686
:1036600001F06CF90F462A46334600901046194681
:1036700001F030F8824602462E4888460B46052166
:103680007844FFF7FEF95246434601F023F82A46F4
:10369000334601F053F980468A463B462846314678
:1036A000009A01F017F83B46009A00F0ABFD069136
:1036B000009000224FF080434046514601F030FA1E
:1036C0000F460C90424653462846314601F002F818
:1036D0003B460C9A00F052FE069B009A01F020FA3D
:1036E0002A46334601F01CFA0022134B01F026F95A
:1036F000054601980E4601EB00510815002810DC24
:1037000028463146019A01F054FEFFF796F9042845
:1037100008BFFFF723FA28463146019A01F049FE17
:1037200005460B4618B02A4658462146BDE8F04DDE
:1037300000F0D0BF841E00000000F03F2DE9F041F2
:10374000184C0F46054666692068001D00F03CFADB
:1037500038B9206890F82C1001208840A169814375
:10376000A161681C07D137B12168BDE8F0410E485E
:10377000091D00F06DBA20683544B54245602168E6
:1037800005D2A068BDE8F041091D00F049BA6068A3
:10379000091D00F045FA206B854200D22563BDE883
:1037A000F081000050000020CC0700202DE9F041FE
:1037B000054600F059FA2E4C2069401C2061206813
:1037C0002C4F10B1E06940B32DE02560206901283D
:1037D00029D1002606EB860007EB800000F012FAE4
:1037E000761C072EF6D323488C3000F00BFA2148C4
:1037F000A03000F007FA1F48B43000F003FA1D486B
:10380000C83000F0FFF91B48DC3000F0FBF9194824
:103810008C3060601430A06005E02068E96AC06AFE
:10382000884200D82560E06A401CE062E96A012015
:10383000A26988401043A06101EB810007EB800082
:10384000291D00F005FA00F02FFAE06900280CD0DD
:103850002068E96AC06A884207D207494FF0805061
:103860000860BFF34F8FBFF36F8FBDE8F08100009A
:1038700050000020F006002004ED00E010B50446E2
:1038800090F8510058B101280CD002280FD05020D8
:1038900080F31188BFF34F8FBFF36F8FFEE7206B6C
:1038A00000F016FA2046BDE8104000F011BA10BD35
:1038B00010484FF44061420706D0C01D0D4920F06A
:1038C0000700411AC1F540610B4A00230144C2E9D7
:1038D00000030839103A21F0070111604B600B60BA
:1038E0000B1AC0E9001393604FF000405360D060A2
:1038F00070470000E00700209C000020144E154C8B
:10390000A6F1C8074FF08058DFF84C9012E000BFD6
:1039100000F0AAF9F068C568281D00F055F9206983
:10392000401E2061E068401EE06000F0BDF92846BE
:10393000FFF7A4FFE0680028EAD138680128F9D928
:10394000C9F80080BFF34F8FBFF36F8FF2E700001D
:10395000B80700205000002004ED00E02DE9F047FA
:103960009A46DDE9098481466FF00303206B03EB7F
:1039700082021044089D20F00706700707D05020EF
:1039800080F31188BFF34F8FBFF36F8FFEE72318CB
:103990000A5C83F834200A5C12B1401C1028F6D36C
:1039A000002784F84370072D00D30625E562C4E99B
:1039B0001157201D00F031F904F1180000F02DF925
:1039C0002461C5F107006462A061E76484F8507067
:1039D00052464946304600F0BFF82060B8F1000F6B
:1039E00001D0C8F80040BDE8F087000030B51149AB
:1039F00000E011460A688242FBD34B685C1884429F
:103A000003D1406818444860084643681C18944233
:103A100009D1084C103C2468A24209D052681A44CB
:103A200042600A6812680260814200D0086030BDBE
:103A30000460F9E79C00002006484168096829B144
:103A40004168C968C9684968016370474FF0FF3130
:103A5000FAE700005000002008484068401C4FF082
:103A6000500080F3118804D0BFF34F8FBFF36F8FE6
:103A7000FEE7BFF34F8FBFF36F8FFEE7A400002078
:103A80002DE9F0410546002700F0BEF9314E3068BF
:103A900008B9FFF70DFFF06805424BD1C5B30835F3
:103AA00068070ED005F00700C0F10800054468075C
:103AB00007D0502080F31188BFF34F8FBFF36F8F73
:103AC000FEE72DB37068854234D822481030014695
:103AD0000C6801E020460C466168A94202D22168C8
:103AE0000029F7D131688C4224D007682168016031
:103AF00060680837411B10290FD96019420708D0A8
:103B0000502080F31188BFF34F8FBFF36F8FFEE714
:103B100010E041606560FFF769FF61687068401AF6
:103B20007060B268904200D2B060F068014300203B
:103B3000C4E9000100F0D2FA780707D0502080F3E2
:103B40001188BFF34F8FBFF36F8FFEE73846BDE894
:103B5000F08100008C00002010B5031F4FF080742E
:103B60001C601B1F21F001011960191F024B0B6023
:103B7000143940380A6010BD593A00082DE9F04167
:103B800006460F4600F0E6FE041E0D4618BF012053
:103B9000284320F00040C0F17F6000F1E040C00FFA
:103BA0000ED0301C18BF0120384320F00040C0F177
:103BB0007F6000F1E040C00F04BF0120FCF7B1FBC3
:103BC00020462946BDE8F081D0E9013201699A60BA
:103BD000D0E901235A604A68824201D182684A6072
:103BE000002202610868401E0860086870470000F3
:103BF000034B036003F1540008608020106070479D
:103C00005C03002000F108014FF0FF32C0E901120F
:103C1000C1600161002101607047002101617047AE
:103C200030B50B685A1C02D000F1080202E00269AC
:103C300004E02246546825689D42FAD953684B60D7
:103C400099608A60516008610168491C016030BD5B
:103C500042684A6093688B6093685960916008611C
:103C60000168491C01607047502080F31188BFF340
:103C70004F8FBFF36F8F0A494868401C4860012886
:103C80000CD10848006810F0FF0F07D0502080F3D7
:103C90001188BFF34F8FBFF36F8FFEE770470000AF
:103CA000A400002004ED00E00849486828B1401E47
:103CB000486001D180F311887047502080F311884B
:103CC000BFF34F8FBFF36F8FFEE70000A40000200B
:103CD00070B5002827D0144DA0F108046168E86889
:103CE000014207D1502080F31188BFF34F8FBFF3FB
:103CF0006F8FFEE722683AB1502080F31188BFF33E
:103D00004F8FBFF36F8FFEE78143616000F07CF857
:103D100060686968084468602046FFF767FEBDE890
:103D2000704000F0DBB970BD8C0000204FF0E02047
:103D300000210161816105494FF47A720968B1FB84
:103D4000F2F1491E41610721016170474C000020DA
:103D500010B5020014D00F48806B38B1502080F3AA
:103D60001188BFF34F8FBFF36F8FFEE700F04CF861
:103D700000211046FFF7E2FC00F0B0F9002807D15F
:103D800005494FF080500860BFF34F8FBFF36F8F2E
:103D900010BD00005000002004ED00E010B586B01A
:103DA0000024039405AA04A903A80494FFF720FFA4
:103DB000DDE903010094CDE9011000230EA11048B4
:103DC000059A00F0EEF80F490028486311D0502002
:103DD00080F31188BFF34F8FBFF36F8F4FF0FF3029
:103DE00008630120C8614C6106B0BDE8104000F0D6
:103DF00041B806B010BD000049444C450000000029
:103E0000FD380008500000200248816B491C816386
:103E100070470000500000201448816B11B101214F
:103E200041627047002141628169B1FA81F1C1F1BB
:103E30001F0101EB81020E4951F822306BB101EBF9
:103E4000820101F108034A6852684A609A4201D12E
:103E500052684A60D16801607047502080F3118831
:103E6000BFF34F8FBFF36F8FFEE7000050000020BD
:103E7000F00600201CB5264908780190FF20087044
:103E800008788DF800009DF800009DF8002000F0F3
:103E9000F000904207D0502080F31188BFF34F8F7D
:103EA000BFF36F8FFEE79DF800001A4B00F0500043
:103EB00018700720986005E09DF8002052008DF8EA
:103EC0000020401E9DF800201206F5D498600328BB
:103ED00007D0502080F31188BFF34F8FBFF36F8F4F
:103EE000FEE74FF440709860019808700A48016836
:103EF00041F470010160016841F070410160FFF719
:103F000015FF00205860FCF751F900201CBD00008F
:103F100000E400E0A400002020ED00E010B55020F7
:103F200080F31188BFF34F8FBFF36F8F00F072F8EB
:103F300018B104494FF080500860002080F31188C8
:103F400010BD000004ED00E02DE9FF5F8346DDE9D0
:103F50000E87994616468A469000FFF791FD0500A8
:103F60001CD05420FFF78CFD040014D000202563E2
:103F700084F85100CDE90240CDE900874B46324636
:103F800051465846FFF7EAFC2046FFF70FFC012098
:103F900004B0BDE8F09F2846FFF79AFE4FF0FF30CF
:103FA000F6E7F0B585B0DDE90B640A9DA6B1DCB19A
:103FB000542700972663022684F85160002604AF38
:103FC000CDE90246CDE90057FFF7C8FC2046FFF7D0
:103FD000EDFB049805B0F0BD502080F31188BFF3CD
:103FE0004F8FBFF36F8FFEE7502080F31188BFF330
:103FF0004F8FBFF36F8FFEE70548C16919B1806B22
:1040000018B100207047012070470220704700005F
:10401000500000202DE9F0412E4C0027A06B40B14C
:10402000206A401C2062606A00B101273846BDE862
:10403000F0816669761C666113D16068006838B1EA
:10404000502080F31188BFF34F8FBFF36F8FFEE7CF
:104050006068A1686160A060A06A401CA062FFF770
:10406000EBFC206BDFF87080864209D36068006843
:1040700080B16068C068C568686886420DD22063F8
:104080002068C06A00EB800158F821000128CAD9D5
:104090000127C8E74FF0FF30F1E7281DFFF794FD37
:1040A000A86A18B105F11800FFF78EFDE86A012132
:1040B000A26981401143A16100EB800108EB8100FE
:1040C000291DFFF7C5FDE86A2168C96A8842CDD37A
:1040D0000127CBE750000020F00600202DE9F04733
:1040E0002C4D00242746A86B38B1FFF7BDFDA86B07
:1040F000401EA863A86B40B146E0502080F31188B1
:10410000BFF34F8FBFF36F8FFEE72969224E012067
:10411000D1B3A6F1B40980463068E8B1F068C4684C
:1041200004F11800FFF750FD201DFFF74DFDE06A78
:10413000AA6908FA00F11143A96100EB800109EBBB
:104140008100211DFFF784FDE06A2968C96A884261
:10415000E2D3C5F82480DFE70CB1FFF76DFC2C6AD1
:1041600044B14646FFF756FF00B16E62641EF9D1B6
:1041700000202862686A38B10849012738070860BA
:10418000BFF34F8FBFF36F8FFFF78EFD3846BDE84B
:10419000F087000050000020A407002004ED00E09C
:1041A00021F00042A2F16052B2F5801F01F00043FD
:1041B00028BFD2F17F6C0BD95FEA001C43EAC20230
:1041C00042EB507018BF704728BF20F001007047C5
:1041D000B2F5801FBCBF184670474FEA410C1CF572
:1041E000001F02D2084600F0FCBF70B500F01CFBB7
:1041F00000000089FFF7F6BF4FF00040A0F58000F7
:104200007047000010B591EA030F48BF83F00043E8
:1042100000F18E84841A71EB030C05D2121943EB62
:104220000C03001B61EB0C01DFF824E14FEA115491
:10423000A4EB135C1EEA430F18BF9EEA445F73D0E1
:1042400023EA0E03DCF1200E21EA045143F480132B
:1042500032D322FA0CFE10EB0E0023FA0CFE41EBD7
:104260000E01CCF1200E03FA0EFE10EB0E0051F100
:104270000001B1F5801FCCF1200E32D201EB0451C8
:1042800012FA0EF2BDE8104058BF7047401C38BF0C
:104290005FEA420218BF7047002814BF20F00100F7
:1042A00041F100014FEA410313F5001F38BF704789
:1042B000A1F1C04100F006BB012A43EB0302ACF1BF
:1042C000200CDCF11F0E32BF4FF0000E23FA0CF36E
:1042D00010EB030041EB0451B4EB115FD0D0A1EB24
:1042E000045101F5801149085FEA300001EB0451E7
:1042F0000ED350F1000038BF12FA0EFE08D1BDE80F
:104300001040C9E7401C38BF5FEA4202CAD1C3E788
:10431000BDE810404FEA410313F5001F38BF704756
:10432000A1F1C04100F0CEBA9EEA445F08D011EA84
:104330005E0FBDE8104004BF01F00041002070474F
:10434000BDE8104070B500F06FFA00BF64FBBE3EE0
:104350000000E0FF02494FF0000000F0F8BF00BF8E
:104360000000F87F491058BFC1F140415B1058BFB1
:10437000C3F140438B42EFF3008070472DE9C04109
:1043800030B4DFF8A0C23CEA111418BF3CEA1314A1
:1043900000F0EC8081EA03051CEA111444EAD574AC
:1043A00018BF1CEA131500F0C780A4EB05044FF0FA
:1043B000004545EAC12145EAC32341EA505143EA99
:1043C000525304F17F74994204F500344FEAC0203F
:1043D0004FEAC22208BF904200F09C804FEA13656A
:1043E0000FF24016765D4FEA134506FB05F7C7F15D
:1043F000807706FB07F74FEAD737A7FB03687642BB
:10440000C8F58038A7FB06CE38BFA8F1010807FB26
:1044100008E64FF0000EA6FB028CE6FB03CEDCF1B3
:10442000000CCEF1004E38BFAEF1010EA6FB0C58C9
:104430004FF000074FF00005E6FB0E87A1FB08C612
:10444000A0FB07CE16EB0E0645F10005E1FB076564
:1044500015F1E04E7EBFA4F580345FEA46066D415B
:1044600016F1800745F100054FEA17274FEA066667
:1044700047EA0567A6F1DE46B6F1805F4FEA1525EB
:104480001FD9384624F0010C05EBC471BCF1FE6F56
:1044900001EB0C1102D8F0BCBDE8008124425CBFE6
:1044A00001F5801E9EEAC47F02D4F0BCBDE8008105
:1044B000244238D4F0BCA1F1C041BDE8004100F075
:1044C00001BA4FEAD22242EA43524FEAD323A7FB72
:1044D00002864FEAD02040EA415007FB03661EEAFD
:1044E0000E0F4FEAD12105FB026658BFA6EB00561E
:1044F000B6EB00564FEA520E4EEAC37E18EB0E0E94
:1045000056EB530EBDD518EB02085E417F1C55F1EA
:104510000005B6E74FF480154FF000074FF0000696
:104520004FF00008ADE7F0BC4FF0000001F1C041D2
:1045300001F00041BDE8008111EA0C1F0CEA1315DF
:1045400000D00CE013EA0C1F00F025804FF00000B3
:10455000F0BC81EA030101F00041BDE80081F0BC3C
:10456000BDE8004181EA030100F0ACB9F0BCBDE850
:10457000004170B500F058F9097EFC3E00F007B824
:1045800081EA03014FF0000001F00041704781EA29
:10459000030100F097B9F0BCBDE800414FF0000006
:1045A00021497047FFFDFBF9F7F5F4F2F0EEEDEB72
:1045B000E9E8E6E4E3E1E0DEDDDBDAD8D7D5D4D321
:1045C000D1D0CFCDCCCBCAC8C7C6C5C4C2C1C0BF6D
:1045D000BEBDBCBBBAB9B8B7B6B5B4B3B2B1B0AF73
:1045E000AEADACABAAA9A8A8A7A6A5A4A3A3A2A157
:1045F000A09F9F9E9D9C9C9B9A9999989797969512
:1046000095949393929191908F8F8E8E8D8C8C8BAD
:104610008B8A898988888787868585848483838235
:10462000828181800000FF070000F87F10F00042C7
:1046300048BF4042B0FA80F310FA03F10AD0C3F148
:104640001D0303F580634FEA415002EB035202EB76
:10465000D12170474FF000007047000051EA030C71
:1046600017D41CF5801F58BFBCF5801F00F10680D1
:10467000994218BF704708BF9042704707D711F59D
:10468000801F58BF13F5801F19D499427047894283
:1046900070471CF5801F08D5BCF5801FF7D58B42ED
:1046A00018BF704708BF824270474FF4001C1CEBD4
:1046B000410F38BF1CEB430F01D28B42704770B5DE
:1046C00000F0B2F8922449004FF000514FF08053AF
:1046D000FFF748BEDFF848C170B51CEA111E1EBFC7
:1046E0001CEA13159EEA0C0F95EA0C0F00F06F8080
:1046F00081EA030423EA4C134EEAD47E21EA4C11EA
:1047000041F4801143F48013AE44A1FB024CA0FBA2
:104710000365AEF17F7E361955EB0C05A1FB034C0A
:104720004CF10003A0FB021C16EB0C06654153F193
:104730000003094218BF46F0010613F4007F0BD1B5
:104740004FEA03314FEA0530340341EA155140EA9C
:1047500016506FF003020AE04FEAC3214FEAC5206A
:10476000F40241EA555140EA56506FF0020202EB62
:104770002E4201EB025585EACE710AD05FEA440C65
:1047800018BF24F0004450F1000041F1000120EA7C
:10479000D47040F2FE7C624500D270BDA84214BFC6
:1047A0004FF080444FF04044002E08BF0024BEF17B
:1047B000806FA8BFA1F1C041BDE8704080F2828047
:1047C0004FF0000001F1C04101F0004170479EEA46
:1047D0000C0F0CEA131518BF95EA0C0F06D04FF01A
:1047E000000081EA030E0EF0004170BD00F01CF8DD
:1047F0008900013E00F007B800F009B84FEA430C09
:104800005FEA5C5C08D081EA030100F05BB84FEA24
:10481000410C5FEA5C5CF6D14FF000000149704743
:104820000000FF070000F87F0EF1020E2EF0030ECD
:104830005EF8046B364205D4012A43EB030515F5F7
:10484000001F12D8012841EB010C1CF5001F0CD8E9
:104850000ED14FEAD17C15F5001F0CEB4C0C0CF17E
:10486000020C08BF4CEBD37C04E04FF0080C01E0D5
:104870004FEAD37C0CEB4C0526FA05F606F007064A
:10488000B6F1040C06D20EEB860CBDE870404CF07D
:10489000010C6047DFE80CF0090B02024FF0004109
:1048A0004FF00000A1F5002170BD19461046012807
:1048B00051EB010418BFD4F5001484BF002001F0AF
:1048C000004170BD0808A0F500114FEA31017047A2
:1048D00053EA010C17D41CF5801F58BFBCF5801F8C
:1048E00000F106808B4218BF704708BF82427047B4
:1048F00007D713F5801F58BF11F5801F19D48B42BD
:1049000070479B4270471CF5801F08D5BCF5801F7F
:10491000F7D5994218BF704708BF904270474FF4CF
:10492000001C1CEB430F38BF1CEB410F01D2994216
:1049300070470FB40CBC03BCFFF7C1BE91EA030F74
:1049400010B581F000413FF565AC83F0004300F005
:10495000EFB800002DE9F04101F5801CBCF5001F07
:10496000C0F2C3804FEA115C21EA0C510CF1FD0C3E
:1049700041F480115FEA5C0C0CF5C07C01D340006F
:1049800049413DA4890241EA905187028E0E0A0CEA
:10499000A45D04FB04F602FB06F6C6F14046A4FB48
:1049A0000662F60D46EA422606FB06F4A4FB012346
:1049B0005242C3F1404338BF5B1EA6FB02420024B3
:1049C000E6FB0324D20B42EA4446A6FB0623A1FBE6
:1049D00002E2A3FB07E4A4184FF0000252F1000228
:1049E000E3FB01426442C2F1404E38BFAEF1010E1A
:1049F000A6FB04234FF00002E6FB0E32A2FB0346A7
:104A00004FF00004B61954F10004E2FB0264A1FB6C
:104A100006E6A4FB07E816EB08064FF0000858F17D
:104A20000008E4FB01687642C8F1405838BFA8F19D
:104A30000108A2FB06E4A3FB08E52D194FF00004D2
:104A400054F10004E2FB0854A1FB05E6A7FB04E8CF
:104A500018EB06084FF0000656F10006E1FB04864D
:104A600018F1200556F10006A809A8F11B08B109A4
:104A700008F03F08B8F10A0F40EA86601CD901EB44
:104A80000C51BDE8F08100BFFCF5EEE8E2DDD8D3C3
:104A9000CFCBC7C3C0BDB9B6B4B1AEACA9A7A5A3AF
:104AA000A19F9D9B9A9896959392908F8D8C8B89C0
:104AB0008887868584838281A0FB006800FB01F2E1
:104AC00008EB4208B8EB872807D5341858EB0104E7
:104AD000D5D5401C51F10001D1E7341A78EB01041F
:104AE000CDD4401E71F10001C9E75FEA4C0C5FEACA
:104AF0009C5C0DD105D34FF0000001F00041BDE8F2
:104B0000F081BDE8F04170B5FFF78EFE6DDBFFBEB2
:104B1000BDE8F0414FF00000004970470000F87F09
:104B200010B591EA030F48BF83F000433FF572AB25
:104B3000841A71EB030C07D212198CF0004C43EB72
:104B40000C03001B61EB0C01DFF8A4E14FEA1154E8
:104B5000A4EB135C1EEA430F18BF9EEA445F00F00B
:104B6000B08023EA6E03524221EA0451C3EB6E0384
:104B700038BF5B1EDCF1200E25D322FA0CFE10EBB1
:104B80000E0043FA0CFE41EB0E01CCF1200E03FAAD
:104B90000EFE10EB0E0051F10001CCF1200E29D4D5
:104BA00012FA0EF201EB0451BDE8104058BF7047F5
:104BB000401C1CBFB2F1004F704700280CBF491CBD
:104BC00020F00100704712EB020E43EB030218BF06
:104BD0004FF0010E4EEA4202ACF1200CDCF11E0E49
:104BE00054D943FA0CFE10EB0E0051F1FF31CCF119
:104BF0001E0ED5D50EF1010E12FA0EFE404141EB0C
:104C0000010101EB445C5FEA5C5C10D910EBDE70E3
:104C100001EB045138BFBEF1004FBDE8104018BF92
:104C2000704700280CBF491C20F00100704730D2AB
:104C30004FEAD42C11F5001124F400641BD0B1FA12
:104C400081F20B3AA41AA41ED2F12003914030FA4B
:104C500003F31943904001EBCC71002C01EB04519C
:104C6000BDE81040A8BF704701F1C0414FF00000FF
:104C700001F000417047B0FA80F310FA03F100D15F
:104C800010BDE41A173C4805C90AE4E701EB0451DA
:104C900010BD491001EB0451BDE810404FEA30004F
:104CA00002E04FF0000170474A0008BF0042F8D010
:104CB000B2F5001F28BF704701F000414FF000001F
:104CC00070479EEA445F07D011EA5E0FBDE81040CE
:104CD00004BF002100207047BDE8104070B5FFF709
:104CE000A3FD00BF40DFF63E83F000411046704751
:104CF0000000E0FF43004FEAD30C4FEA3C0C434076
:104D00001FBF40070CF1605113F0FE4F70471CF0BD
:104D1000006F03D100200CF0004170470CF00043FD
:104D200043EA507010B540EACC0000F014FA00BF1E
:104D3000000000924FEA0001FFF7C4BD4FF00041B0
:104D40004FF00000A1F500217047000090EA010F2C
:104D500048BF81F0004100F18C82421A3CBF801AAA
:104D600089184FEAD0524FF07F4C1CEA410FA2EB5A
:104D7000D15318BF9CEA026F00F03B804FF0004C0B
:104D80004CEA00204CEA012121FA03FC10EB0C0C48
:104D90001ED202F1FF325FEA1C2040EBC25038BF46
:104DA00070471CF07F0F4FEA400C18BFBCF17F4FDB
:104DB00038BF7047C3F12003994008BF20F00100BD
:104DC000BCF17F4F38BF7047A0F1C04000F009BA76
:104DD0004FEA3C00000A40EBC25028BF1CF0FF0F16
:104DE0004FEA400CE6D018BFBCF17F4F38BF704788
:104DF000EAE79CEA026F05D010EA5C0F08BF00F0FA
:104E00000040704710B500F0A6F900BF64FBBE3E3D
:104E1000401058BFC0F14040491058BFC1F1404157
:104E20008142EFF3008070474FF47F0C1CEAD012F0
:104E30001EBF1CEAD11392EA0C0F93EA0C0F00F08C
:104E4000858090EA010F48BF42F4807240F4000C64
:104E500041F400002CF07F4120F07F4000B58142FA
:104E6000A2EB03020FF2081CACEB504EC0F10000A5
:104E70009EF800E04FEA4E0E00FB0EFC38BF4900E2
:104E80004FEA2C1C02F5FA020CFB0EF34FEACE1E81
:104E90004FEA112C4FEAC1210EEB635E42EB224236
:104EA0000EFB0CFC4FEA1C5300FB03114FEA112CC4
:104EB0004FEA01310EFB0CFC4FEADC4C00FB0C11FD
:104EC000C14228BF09184CEB03335DF804EB10EB2B
:104ED000410143EBC250B2F57C0F38BF704729D572
:104EE00012F0F00F1CBF00F1C04000F0004070470E
:104EF000008182838485868788898B8C8D8E8F91B3
:104F00009293959697999A9C9D9FA0A2A3A5A7A8D6
:104F1000AAACAEB0B2B3B5B7B9BCBEC0C2C5C7C902
:104F2000CCCED1D4D7D9DCDFE2E6E9ECF0F3F7FA66
:104F3000FE0000004FEA400C0CF1807CBCF17E4F7B
:104F400028BF7047B0F1C04000F04BB990EA010FA4
:104F50000CEAD11348BF42F48072624538BF634502
:104F600007D213F47F0F16D080EA010000F0004052
:104F7000704710B500F0EFF8097EFC3E00F005B870
:104F800080EA010000F00040704780EA010000F074
:104F9000004000F026B912F47F0F04BF02487047AA
:104FA00080EA010000F01DB90000C07FC10DD1F101
:104FB0009E0206DB4FEA002343F0004323FA02F08F
:104FC0007047004207D54FEA4001B1F1FE4F02D2CF
:104FD0004FF00000704710B500F0BDF849922480F2
:104FE000002070476FEA20007047000050EA010C73
:104FF00000F113801CF5000F58BFBCF5000F01D461
:105000008842704707D710F5000F58BF11F5000F01
:1050100015D488427047894270471CF5000F04D5AB
:10502000BCF5000FF7D5814270474FF0807C1CEB38
:10503000400F38BF1CEB410F01D28142704710B5C1
:1050400000F089F8922449004FF000504FF0805151
:10505000FFF7DEBE4FF47F0C1CEAD0121EBF1CEA25
:10506000D11392EA0C0F93EA0C0F00F0478090EAFC
:10507000010F48BF42F480724FF0004C4CEA002010
:105080004CEA012102EB0302A0FB0113A2F500028E
:10509000002918BF43F001035B0028BF4FEA330328
:1050A00042EB22425FEA132C4CEBC2502EBFBCEB0A
:1050B000436FB2F57C0F70474FEA036CBCF1004FB1
:1050C00008BF20F00100B2F57C0F38BF70470BD548
:1050D00082F0FF0212F5803FC8BF704700F1C04068
:1050E000D8BF00F00040704700F5000C5FEA4C0CA0
:1050F00048BF7047B0F1C04000F073B890EA010FAC
:105100000CEAD11348BF42F48072624538BF634550
:1051100004D280EA010000F00040704710B500F0B2
:105120001AF800BF8900013E00F007B800F009B886
:105130005FEA410C5FEA1C6C08D080EA010000F0D5
:1051400050B85FEA400C5FEA1C6CF6D14FF00040AB
:10515000A0F5800070470EF1020E2EF0030E5EF8EF
:10516000044B244204D44FEA4102B2F17F4F11D8DC
:105170004FEA4003B3F17F4F0CD80ED14FEAD07CF9
:10518000B2F17F4F0CEB4C0C0CF1020C08BF4CEB56
:10519000D17C04E04FF0080C01E04FEAD17C0CEB2D
:1051A0004C0324FA03F404F00704B4F1040C06D20F
:1051B0000EEB840CBDE810404CF0010C6047DFE8BA
:1051C0000CF0070802024FF00040A0F5800010BD6F
:1051D0000846420018BFD2F1807288BF00F000403C
:1051E00010BDFF2141EAD050C005704751EA000CC4
:1051F00000F113801CF5000F58BFBCF5000F01D45F
:105200008142704707D711F5000F58BF10F5000F06
:1052100015D481427047894270471CF5000F04D5B0
:10522000BCF5000FF7D5884270474FF0807C1CEB2F
:10523000410F38BF1CEB400F01D28842704780EA13
:10524000010081EA000180EA0100FFF7F8BE80F06A
:10525000004090EA010F7FF580AD81F0004100F041
:1052600008B8000090EA010F48BF81F000413FF507
:1052700074AD421A04D882F00042A0EB020011443F
:105280004FEAD0524FF07F4C1CEA410FA2EBD153B2
:1052900018BF9CEA026F4AD04FF0004C4CEA002045
:1052A0004CEA012121FA03FCB0EB0C0C0FD412F0F4
:1052B000FE0F36D05FEA4C001DD5001240EBC25005
:1052C00038BF70471CF03F0F18BF70470BE0A2F1CA
:1052D00001025FEA1C2040EBC25038BF70471CF04F
:1052E0007F0F18BF7047C3F12003994014BF401EC1
:1052F00020F00100704780084FEA122308BF704772
:10530000B0FA80FCA2EB0C02CCF1280C60FA0CF095
:1053100093EA122F04BF00EBC25070474FEAC370EC
:105320007047130A5FEADC1008BF7047F6E79CEA93
:10533000026F04D010EA5C0F08BF0020704710B560
:10534000FFF709FF40DFF63E81F0004070470CF0A8
:105350000F03092B08BF082000F059800A2B0BD03F
:10536000082B18BF704708BF1CF0400F0AD04FF041
:1053700000004FF0000170471CF0400F18BF4FF0C5
:10538000004070471CF0100F08D020F0704300F070
:105390007F4242EAD3014FEA4370704700F0604019
:1053A00021F07F4242EA000201F07F4040EA727041
:1053B00070474FF0FF0C4CF4E06C1CEA11531CBF1B
:1053C0009CEA030C9445C2BFDA4201EB02517047DC
:1053D000002B0DD0BCF1000F0FD0002A01F00041CE
:1053E000A4BF41F0E04141F07F614FF00000704701
:1053F00001F000414FF00000704750EA01334FF0D8
:105400009B0C18BF4CF0806C7EF4A4AF70471CF46A
:10541000801F11D01CF4E02F03D06FEACC3149007B
:1054200070474FF04050EFF3008222F0704242EAA2
:10543000000282F3008870474FF0000070470000C0
:1054400017B751390AD7A33B0000000017B75139ED
:105450000AD7A33B0000000044550008B52B000804
:1054600002000000000000008000000000000000BA
:1054700000000000385500086D2B000802000000F5
:10548000000000008000000000000000000000009C
:1054900000000000000000000102030406070809E4
:1054A0000000000001020304000000000000F03FC3
:1054B000000000000000F83F0000000000000000B5
:1054C0000000004003B8E23F0000000000000000C0
:1054D00006D0CF43EBFD4C3E033333333333E33F4E
:1054E000FFAB6FDBB66DDB3F4D268F515555D53F7A
:1054F00001411DA96074D13F65DBC9934A86CD3F48
:10550000EF4E454A287ECA3F3E5555555555C53F35
:1055100093BDBE166CC166BF2CDE25AF6A56113F27
:10552000F16BD2C541BDBBBED0A4BE726937663E29
:10553000000000000000000043414E5F5461736BA7
:1055400000000000436F6E74726F6C5F5461736B88
:10555000000000007455000800000020B0000000AA
:105560002801000824560008B0000020901900000F
:1055700044010008000100000000000000000000DD
:10558000000000000000000000000000000000001B
:10559000000000000000000000000000000000000B
:1055A00000000000000000000000000000000000FB
:1055B00000000000010000001000000000000000DA
:1055C0000024F400000000000000000000000000C3
:1055D00000000000000000000000000000000000CB
:1055E00000000000000000000000000000000000BB
:1055F00000000000000000000000000000000000AB
:10560000000000000000000000000000000000009A
:10561000000000000000000000000000AAAAAAAAE2
:045620000000000086
:04000005080000ED02
:00000001FF
